:020000000C945E
:10000200E7000C9400000C9400000C9400000C9487
:1000120000000C9400000C9400000C9400000C945E
:1000220000000C9400000C9400000C9400000C944E
:100032001A010C9400000C941E010C9400000C9404
:1000420000000C9400000C9400000C9400000C942E
:1000520000000C9432010C9400000C9400000C94EB
:1000620000000C9400000C941F010C9400000C94EE
:1000720000000C942D010C9400000C9400000C94D0
:1000820000000C9400000C9400001027E8036400A8
:100092000A0001000010000110000100FFFFFFFF35
:1000A200FFFFFFFF17B7D1380A0000000000000071
:1000B20000000000803F0000803F000000000000C0
:1000C2000000000000000000000054657374696EB7
:1000D200670025640054756E6E696E67004475741E
:1000E20079002564202500450046002D0054004972
:1000F200004D00520056616C76652100447574799A
:10010200203A2000253264202500464C45580050F4
:1001120052455300312E50726573737572652054C7
:1001220045535400322E50726573737572652054B4
:10013200756E6E696E6700332E466C657820544585
:10014200535400342E466C65782054756E6E696E79
:100152006700352E50574D205445535400362E50CB
:10016200554D50205445535400372E4F72646572DA
:10017200205445535400382E56616C7665204F72D8
:1001820064657200392E5468726573686F6C643FDF
:100192000031302E50554D502056414C5645002AC4
:1001A2002A425245414B212A2A0080C00400D90626
:1001B2009E000400E106A2000400EE06A600010073
:1001C2001F07AA0002002007AC010000F894EE27E6
:1001D200ECBBF1E0F5BFE5BFE0936C00F8E1F1BDE7
:1001E200E1BD8DE0A2E0BB27ED938A95E9F780E0BF
:1001F20090E1A0E0B1E0ED930197E9F7EEEAF1E0DA
:1002020085919591009761F0A591B5910590159012
:10021200BF01F00105900D920197E1F7FB01F0CFCC
:100222008BBFEFEFEDBFE0E1EEBFC0E0D5E00C9495
:10023200E9050E949409A1E004C00EC00E9494093D
:10024200A0E10E947A0BE129E5BBE991EFBFE991B8
:10025200A991199009901895EA93E0E0E5BBE9911C
:1002620018950A921A92AA93BA93EA93FA93EFB75D
:10027200EA93A0912B05A53058F0E0912B05F0E010
:100282003497A2E3B0E00E94A10BEF5FF94F07C0E1
:10029200E0912B05A2E3EA9FF001E35DFA4FDF0153
:1002A200E0910005F0E0AE0FBF1FE5B1EC93A09125
:1002B2000005A23359F4E0912B05EF5FE0932B0583
:1002C200E0E0E0930005E1E0E0932C05E0912B05EE
:1002D200E770E0932B05E066E7B9369AE0910005F6
:1002E200EF5FE0930005E991EFBFF991E991B991D0
:1002F200A9911990099018951A9310E0E0912C0594
:10030200E030E1F310E0123350F40E949E090E94A3
:10031200A509E35DFA4F0E94AF091F5FF4CF0E9467
:10032200BB09E350FA4FBF010E949E090E94BE0919
:100332000E949E090E94CA09F1F00E94BB090E9414
:10034200D509E352F94FE081EA1730F40E94DB0944
:10035200E352F94FE081EC930E94BB090E94D50958
:10036200EF51F94FE081AE1730F40E94DB09EF51F3
:10037200F94FE081EC93AFC00E94E0090A9B1DC0D7
:100382000E94E8090E94EF090B9B1F5F099B115015
:10039200143008F013E01A93E0E0EA93ADDF0E9414
:1003A200F5090E94050A0E94140AE350FA4FE081FF
:1003B2000E94050A0E94250AE1CF5CC20E94E00960
:1003C2000A9B49C00E94E8090E942B0A0B9B1F5FEF
:1003D200099B1150143008F013E01A93E0E0EA93FD
:1003E2008BDF0E94310A0E94D509E352F94FE08166
:1003F200EA1750F40E94340AA352B94F0E94310AFC
:10040200E350FA4FE081EC930E94310A0E94D50931
:10041200EF51F94FE081AE1750F40E94340AAF5108
:10042200B94F0E94310AE350FA4FE081EC930E94E7
:10043200370A0E94F509F0E0EF51F94FE0810E947E
:10044200050A0E94140AE352F94FE0810E94050A4C
:100452000E94470AB5CF0EC21A9310E0E0912C0514
:10046200E030E1F310E0123350F40E944D0A0E9492
:10047200A509EF5FF94F0E94AF091F5FF4CF0E94F9
:10048200BB09EF52F94FBF010E944D0A0E94BE09FB
:100492000E944D0A0E94CA09F1F00E94BB090E9403
:1004A200540AEB52F94FE081EA1730F40E945A0ADB
:1004B200EB52F94FE081EC930E94BB090E94540A6F
:1004C200E752F94FE081AE1730F40E945A0AE75220
:1004D200F94FE081EC931881239608950E94E00978
:1004E2000A9B1DC00E94E8090E94EF090B9B1F5F37
:1004F200099B1150143008F013E01A93E0E0EA93DC
:10050200ABDF0E94F5090E94050A0E94140AEF520D
:10051200F94FE0810E94050A0E94250AE1CFAAC193
:100522000E94E0090A9B49C00E94E8090E942B0A26
:100532000B9B1F5F099B1150143008F013E01A93B4
:10054200E0E0EA9389DF0E94310A0E94540AEB52EA
:10055200F94FE081EA1750F40E94340AAB52B94FC6
:100562000E94310AEF52F94FE081EC930E94310A66
:100572000E94540AE752F94FE081AE1750F40E94EC
:10058200340AA752B94F0E94310AEF52F94FE08163
:10059200EC930E94370A0E94F509F0E0E752F94F06
:1005A200E0810E94050A0E94140AEB52F94FE08191
:1005B2000E94050A0E94470AB5CF5CC12497E2E374
:1005C200E883E0E0E983EA83EB830E945F0A0E940A
:1005D200650A0E946A0A0A9B51C00B9908C00E94D0
:1005E2006F0AEF5FFF4F6F4F7F4F0E94720A0999A8
:1005F20007C00E946F0A3197604070400E94720AE1
:100602000E94140CA130E0E0BE07E0E08E07E0E0BB
:100612009E0734F4E1E0F0E060E070E00E94720ACC
:100622000E94140CA436E0E0BE07E0E08E07E0E092
:100632009E0734F0E3E6F0E060E070E00E94720AA8
:100642000E946F0AA2E3B0E080E090E00E94CE0B2D
:10065200DF01CB01E8E00E948B0BEBBDE881A2E356
:10066200EA02F001EABD0E94E8090E94750AEC81E3
:10067200FD816E817F810E948A0AADCF0E94970A16
:10068200E5BB0E949C0A0E946A0A8EC01A930A93D2
:1006920002E310E00E945F0A0A9B25C00B9902C088
:1006A2000F5F1F4F099902C0015010400130E0E076
:1006B2001E0714F401E010E00436E0E01E0714F017
:1006C20003E610E0F801A2E3B0E00E94C90B0E9429
:1006D200A00A0E94E8090E94750AF8010E949C0B78
:1006E2000E948A0AD9CF0E94A80AE8BB6EC21A9356
:1006F2000A93AA81BB81EC911E2F00E00D9B016041
:10070200CA9B0260CC9B0460CE9B0860C99B0061BF
:10071200CB9B0062CD9B0064CF9B00680D9B02C007
:10072200C99901C001C00E7ECA9B02C0CB9901C00B
:1007320001C00D7DCC9B02C0CD9901C001C00B7BD5
:10074200CE9B02C0CF9901C001C007770E94AC0ABC
:1007520051F00E94310AEB51F94FA1E0A0830E94AF
:10076200310A0E94B70A0E94BC0A41F00E94310A73
:100772000E94C70AE751F94FA1E0A0830E94AC0A88
:1007820019F40E94BC0A09F006C00E94310A0E94B4
:10079200C70A0E94B70A1F5F143008F010E0AA814E
:1007A200BB811C931981088124960895E9810E94D6
:1007B200CC0A0E94D10AEB51F94FE081E03021F0DE
:1007C200E9EEF0E00E94D40A0E94D10AE751F94F03
:1007D200E081E03021F0EBEEF0E00E94D40A0E94CA
:1007E200D10A0E94D80A19F40E94DE0A09F004C054
:1007F200EDEEF0E00E94D40A0C94DB080E94E009BE
:100802000A9B38C0EDB7FEB7FA93EA931F936FDFE6
:100812001F910E94E809EFEEF0E00E94D40AE2E0A4
:100822000E94E40AE1EFF0E00E94D40AE4E00E94B0
:10083200E40AE3EFF0E00E94D40AE6E00E94E40A50
:10084200E5EFF0E00E94D40AE0E0EA93EA93AEDF3B
:10085200E2E0EA93E1E0EA93A9DFE4E0EA93E2E08E
:10086200EA93A4DFE6E0EA93E3E0EA939FDF0E94E3
:10087200470AC6CF199108951A930A9310E000E02F
:100882000E945F0A0E94650A0A9B82C0EDB7FEB70A
:10089200FA93EA931F932BDF1F910E94E809E7EF77
:1008A200F0E00E94D40A0B9905C0E091ED06EF5FDB
:1008B200E093ED06099905C0E091ED06E150E09361
:1008C200ED06A091ED06A43018F0E0E0E093ED060D
:1008D200A091ED06A03011F4099B01C003C0E3E032
:1008E200E093ED06E7E00E94E40A0E94E90A0E9412
:1008F200050A0E94F40A0E94E90A0E94FD0AE7E042
:100902000E94CC0A0E94E90A0E94020B0E94070B75
:100912000E94D80A19F40E94DE0A09F00AC0E1E036
:10092200EBBDE4EFEABDE1E0E0938700E4EFE093A2
:1009320086000E94070B0F01EB51F94FA081A130F5
:1009420019F40E94DE0A09F00AC0E3E0EBBDE0E21E
:10095200EABDE0E0E0938700E8ECE09386000E94C5
:10096200070B0E94D80A31F4F001E751F94FA08138
:10097200A13009F00AC0E0E0EBBDE8ECEABDE3E03B
:10098200E0938700E0E2E09386000E94470A7CCF72
:100992000E94970AE093ED06E0E0F0E0FBBDEABDBD
:1009A2000E94A80AE0930105E0930205A0910105C7
:1009B200B091020514973CF40E940B0B0E94100B9D
:1009C2000E94160BF3CFE0E0E8BBE5BBFEC01A9332
:1009D2000A9310E002E30E945F0A0E94650A0A9BE2
:1009E2007DC0EDB7FEB7FA93EA931F9380DE1F91A5
:1009F2001093ED060E94E809EEEFF0E00E94D40A9F
:100A0200E6E00E94E40A0E941E0BE6E0F1E0FA939F
:100A1200EA93E02F0E94050A0E94F40A0E94E90A62
:100A22000E94FD0AE7E00E94CC0A0E94E90A0E94A5
:100A3200020B0E94070B0E94D80A19F40E94DE0AD8
:100A420009F00AC0E9E0EBBDE4ECEABDE9E0E093BD
:100A52008700E4ECE09386000E94070B0F01EB5144
:100A6200F94FA081A13019F40E94DE0A09F00AC0F0
:100A7200EDE0EBBDECEAEABDE5E0E0938700ECEDEA
:100A8200E09386000E94070B0E94D80A31F4F0011D
:100A9200E751F94FA081A13009F00AC0E5E0EBBDB2
:100AA200ECEDEABDEDE0E0938700ECEAE09386002E
:100AB2000B9B0F5F099B0150013008F401E00436E3
:100AC20008F003E6E2E3E09FF0010E94A00AE4EFEF
:100AD200F1E0FA93EA930E945E0B81CF0E94970A9B
:100AE200E093ED060E949C0A0E94A80AE9BDE0E09C
:100AF200E8BDE0930105E0930205A0910105B091E4
:100B0200020514973CF40E940B0B0E94100B0E94EA
:100B1200160BF3CFE0E0E8BBE5BB57C01A930A938C
:100B220000E010E00E945F0A0A9B4FC00B9902C0CE
:100B32000F5F1F4F099902C0015010400430E0E0DE
:100B42001E0714F000E010E000240016010611F464
:100B5200099B01C002C003E010E00A93E1E0EA93BE
:100B62007BDC0A93E1E0EA93C7DB0E94E809ECE050
:100B7200F1E00E94D40AE5E00E94E40A0E941E0B02
:100B8200E4EEF0E0FA93EA93A1EDB6E0A00FB11F14
:100B9200EC910E94050AE0E00E94CC0AE1E1F1E05A
:100BA2000E94D40AE5E00E94CC0A0E941E0BE4EEE9
:100BB200F0E0FA93EA93ADEFB5E0A00FB11FEC912C
:100BC2000E94050A0E94470AAFCF09911991089520
:100BD20010E009E0E0E0EBBBE1E0EABBE0E0E8BB0B
:100BE200EFEFE7BBE0E0E5BBEFEFE4BBE0E0E2BB49
:100BF200EFEFE1BBE0E0E3B9E0ECE2B9E0E0E09383
:100C02006200E0936100E0936500E0936400E2E239
:100C1200EFBDECE1EEBDE0E0EDBDECBD0E946A0A85
:100C22000E949C0A0E94A80AE0937900E0E0E09307
:100C32007800E2E0E0938B00ECE1E0938A00E0E0F0
:100C4200E0938900E0938800E3E1E0938100E7E824
:100C5200E0938000E0E0E0938700E0938600E09379
:100C62008500E0938400E0938300E0938200E7BF75
:100C7200E0937D00E1E2E7B9EFECE6B9E1E0E0BD47
:100C8200E8E0EA930E944A0978940B9B1F5F099B54
:100C92001150011708F410E0103011F4099B102FC5
:100CA2000E94310A309749F40E94E809E6E1F1E036
:100CB2000E94D40A0A9B60DB7BC0E130A0E0FA0705
:100CC20049F40E94E809E6E2F1E00E94D40A0A9B94
:100CD20075DB6EC0E230A0E0FA0749F40E94E80931
:100CE200E9E3F1E00E94D40A0A9BF8DB61C0E33039
:100CF200A0E0FA0749F40E94E809E5E4F1E00E9465
:100D0200D40A0A9B0DDC54C0E430A0E0FA0749F48F
:100D12000E94E809E4E5F1E00E94D40A0A9B4EDC55
:100D220047C0E530A0E0FA0749F40E94E809EFE580
:100D3200F1E00E94D40A0A9BA9DC3AC0E630A0E0A6
:100D4200FA0749F40E94E809EBE6F1E00E94D40AAE
:100D52000A9B54DD2DC0E730A0E0FA0749F40E9457
:100D6200E809E8E7F1E00E94D40A0A9B85DD20C089
:100D7200E830A0E0FA0749F40E94E809E6E8F1E069
:100D82000E94D40A0A9BCADE13C0E930A0E0FA0727
:100D920049F40E94E809E3E9F1E00E94D40A0A9BBF
:100DA20016DE06C00E94E809E1EAF1E00E94D40AD8
:100DB200E4E6F0E0FA93EA930E945E0B66CFFFCF7F
:100DC2001A930A93AA81BB8112960E94070C30974C
:100DD20059F1AA81BB8114960E94070C8F013097AA
:100DE20061F00230E0E01E07F0F0F80131978F0168
:100DF200AA81BB811496ED93FC93AA81BB811296C2
:100E0200ED91FD913196FE93EE933197AC81A083E3
:100E1200AA81BB810E94070CFF232AF0ED91FD916C
:100E22003196FE93EE9306C0AA81BB81EFEFFFEFEE
:100E3200ED93FC93198108812596089526970E94C7
:100E4200230C10E0AC85BD85E0E0F0E0ED93FC936F
:100E5200EA89FB893196EA8BFB8B3197E4912E2F3D
:100E6200E03011F40C944C08E12FE03039F42532D3
:100E720011F411E002C00E94230B0CC1E130A9F46D
:100E8200253219F40E94230B04C112E040E000E075
:100E92002D3211F401E0FEC02B3211F44BE2FAC004
:100EA200203211F440E2F6C002C0E23039F450E0E0
:100EB20013E0203311F40068EDC004C0E33011F0F8
:100EC2000C944B08203310F02A3308F007C0AAE034
:100ED2005A9F502DE22FE0535E0FDCC0E22FE33623
:100EE20049F40E942C0BE889F989A481AA930E94F3
:100EF200320BCFC0E33741F40E942C0B0E943A0B15
:100F02000E947F091E2F0AC0E03761F40E942C0B59
:100F12000E943A0B0E9489091E2F086002600F7717
:100F220030E035C0E43611F0E93611F4046002C055
:100F3200E53731F4ECE8F0E0EE83FF8315E00DC015
:100F4200E83511F4086004C0E83711F00C944A083F
:100F5200E6E9F0E0EE83FF8314E002FF14C00E9492
:100F62002C0B0E94440BAB85AA233AF4EA85FB853D
:100F72000E946E0BEA87FB874DE2403011F01F5F43
:100F820001C00B7F04C00E942C0B0E94440B00FD89
:100F920011C0151778F407FF08C002FF04C00B7FC9
:100FA200242F115001C020E301C020E20E94230B34
:100FB2005150EFCF312F01FF17C03030A1F003FFA6
:100FC20006C0EE81FF812591EE83FF8305C0AE81CD
:100FD200BF812D91AE83BF830E94230B503009F055
:100FE20051503150EACF4BC020E3EE81FF810E9485
:100FF2000B0CE887F987EE81FF813296EE83FF833F
:10100200E885F985AA85BB85AE17BF0750F02F5F2B
:10101200A885B985EA85FB85EA1BFB0BEA87FB8776
:10102200EFCF2A3328F003FF02C0295F01C0295DF8
:1010320004FD1AC0213320F4A885B985119709F45B
:1010420009C0531710F000FF01C013C020E207FFD0
:101052000BC020E3006102FF07C00B7F4A930E948E
:10106200320B503009F051500E94230B503009F0DE
:1010720051503150A885B985129708F0B5CF00FFBD
:1010820008C0503031F05150E0E2EA930E94320B36
:10109200F8CF10E0DDCEAC85BD850E94070C0E9422
:1010A2002A0C64960895FF92F82E26970E94250C2A
:1010B2000E944C0B309719F4EFEFFFEF25C0DE01D1
:1010C20016960E946A0B8D010E944C0BEE83FF83E1
:1010D200E0E0E887E987DE011A960E946A0B0E9427
:1010E200070CFA93EA931A930A93E1EEF6E0FA9365
:1010F200EA93FE013A96FA93EA93A0DE9F01AE814B
:10110200BF81E0E0EC93F9010E942C0C2A96FF903B
:101112000895FFE0FA95F1F70895A1B3AF70A1BB6E
:10112200919A9098F6DF929AF4DFA0B39298F1DF49
:10113200929AEFDF9298A7FDF5CF0895A07FAB2B8F
:10114200A2BB929A0E948A0892980E948A080895E5
:101152009198A1B3A76FA1BBB2B3BF70A881EEDF14
:10116200A881A295EBDF919A0C947D09929A0E9434
:101172008A08E0B392980E948A08E07F08950E944C
:101182008A08F4DFAE2FF2DF9198E295EA2B0895F8
:101192000E948E080E94D10AE05EF84FE081A98188
:1011A200EA0FEA930E94A908E981E0932407E88103
:1011B200E0932507229608950E948E08E2E0EA93C2
:1011C2000E94A9080E948E08ECE0EA930E94A908F6
:1011D2000E948E08E1E0EA930E94A908E0E0E09311
:1011E2002507E09324070895EF93FF93A88168945D
:1011F200AA3039F0E894E0912607A0912407AE17AF
:1012020060F0E0912507EF5FE0932507E0E0EA93C5
:10121200E0912507EA93BCDF56F0E0912407EF5FE7
:10122200E09324077ADF909AA881AA9391DFFF9135
:10123200EF910C947D091A93A981BA81ED91A9834A
:10124200BA831E2FE03019F01A93CEDFF5CF0EC00D
:101252001A93E981FA813196E983FA833197E4910D
:101262001E2FE03019F01A93BFDFF3CF18812396B7
:101272000895AA27BB271197F1F708959198A1B372
:10128200A76FA1BBB2B3BF70A8810E949F08919AB9
:1012920033C092989098E881E0932607E058E09353
:1012A2002207E881E054E09323070E94530B0E9437
:1012B200530B0E94530BDDDFE0E2EA93DFDFD9DF5D
:1012C200E8E20E94590BE4E00E94590BE5E80E9413
:1012D200590BA1B3AF70A1BB919A0E94C008E5302F
:1012E20011F0E0E009C00E948E08E6E0EA930E9455
:1012F200A9080E94DD08E1E021960895A991B9911B
:10130200EE27FF276D91662311F03196FBCF0895EA
:10131200AA27BB27E991F9910590002011F01196B7
:10132200FBCFFD0108950A921A92AA93EA93EFB7AE
:10133200EA9315B2E091ED060895EA81A5EFB5E0D2
:10134200F0E0EE0FFF1F0895EA0FFB1FCF0160814F
:101352007181EA81A2E3EA9FF0010895DF01EE279D
:10136200A10FBE1FEC91F0E0E60FF71FDC01ED9339
:10137200FC930895EA81F0E00895AE0FBF1F0E942A
:10138200070CDF01E2E3F0E00E94D30BDB01EC93F8
:101392000895AE0FBF1FE0E0F0E0ED93FC93E09301
:1013A2002C05E981E03008950F01E350FA4FA08146
:1013B200F0010895AA81B0E0A350BA4FDBCF1A938F
:1013C20010E0E2E3F0E0FA93EA930C945E0B0E94E1
:1013D200DD08E0E0EA93EA930C94C908ECECF0E053
:1013E200FA93EA930C942909E0E0EA93E1E0EA93A4
:1013F2000E94C908E3E0F5E0FA93EA93E4EDF0E035
:10140200FA93EA93E12F0895FF27662777270E9430
:101412001E0C84E00E9454082896E3E0F5E0FA935B
:10142200EA930C941C09E4E0EA93E1E0EA930E9457
:10143200C908E3E0F5E0FA93EA93E4EDF0E0FA9309
:10144200EA93E12FF0E00895E8ECF0E0FA93EA93F2
:101452000C945E0BE7EDF0E0FA93EA930C94290901
:10146200E12FF0E00895A12FB0E00895E7E0EA93BC
:10147200E0E0EA930E94C908E3E0F5E0FA93EA9318
:10148200E4EDF0E0FA93EA93E12FBECFE4E6F0E078
:10149200FA93EA930C945E0BEA81A9ECB6E0F0E0D1
:1014A200EE0FFF1F08950F01EF52F94FA081F001D7
:1014B2000895AA81B0E0AF52B94F5CCFE2E3F0E009
:1014C200FA93EA930C945E0BE4E1E7BFE0937D00AC
:1014D2000895E3E1E7BDE7E8E6BD08950E940F0C39
:1014E20008950E94190C0895EFEDF0E0FA93EA9343
:1014F2000E942909E0E0EA93E1E0EA930E94C90828
:10150200E3E0F5E0FA93EA93E4EEF0E0FA93EA938B
:1015120008950E941E0C84E00E9454082896E3E07D
:10152200F5E0FA93EA930E941C09B0CFE0E0E7BF2E
:10153200E0937D000895E0E0EBBDEABD08950E94CE
:10154200970BE9BDA2E30A02F001E8BD0895E0E0CD
:10155200E9BDE8BD0895E12FA1E0B0E00E94820B51
:10156200A02FB0E0EA23FB2330970895E751F94F0B
:10157200A0E0A0830895E12FA0E1B0E00E94820BD9
:10158200A02FB0E0EA23FB2330970895EB51F94FE7
:10159200A0E0A08365CFEA93E1E0EA930C94C90846
:1015A200E881F0E00895FA93EA930C9429090F0177
:1015B200EB51F94FA081A0300895F001E751F94FA6
:1015C200A081A0300895EA93E0E0EA930C94C90860
:1015D200E3E0F5E0FA93EA93E4EDF0E0FA93EA93BC
:1015E200E091ED060895E0E0EA93E091ED06EA93DA
:1015F2000E94D703E5E0CFCFF0E0EB51F94FE08155
:1016020003CFF0E0E751F94FE081FECEE091ED0625
:10161200F0E00895E0910105F09102050895EB5183
:10162200F94FA0E0A083F6DFA1CFA1E0B5E0ED91F4
:10163200FD913196FE93EE930895E3E0F5E0FA937F
:10164200EA9308952A93ED85FE85FA93EA93E98950
:10165200FA8909950895E889F9893497E88BF98B15
:101662000895ED85FE85FA93EA93E989FA89099549
:101672000895A889B98914960E94070CEE83FF8306
:10168200FA93EA930895A889B98914960E94070CDF
:10169200EA87FB870895DE011C960E946A0B0E946E
:1016A200070C08950E943A09E0E3EA930C943F097B
:1016B200EA930E94A9080C943A09E991F9913096AB
:1016C20039F080EA9FE00197F1F7A8953197C9F7C1
:1016D20008950024AF0DB01D0895F195E195F040F5
:1016E2000895F09560957095E195FF4F6F4F7F4F8C
:1016F2000895EE230E2EEA2F19F0EE0F0A94E9F761
:101702000895EE230E2EFD0121F0EE0FFF1F0A9425
:10171200E1F70895EE230E2EFD01BC0131F075951F
:101722006795F795E7950A94D1F70895EF2FFF276C
:10173200E7FDFFEF08956F2F660F660B762F089572
:10174200FA9FF02DEB9FF00DEA9FE02DF10D089529
:101752007A9F702D6B9F700DF89F700DE99F700D31
:101762006A9F602D710DFB9F600D711DE89F600DDA
:10177200711D8827FA9FF02D610D781FEB9FF00DE8
:10178200611D781FEA9FE02DF10D681F781F0895F3
:101792001CD0D6DF0EF4A1DF089525D0D9DF0EF4D8
:1017A200A0DF08950024112490E1AA0FBB1F001CA2
:1017B200111C0E1A1F0A18F40E0E1F1E01C0A16082
:1017C2009A9599F7FD01D0010895E894F7FF02C0B8
:1017D20084DF6894B7FF06C0A095B095119600F813
:1017E200039400FA0895E89477FF02C07ADF6894C0
:1017F20097FF0BC00024A095B09580959095119607
:10180200801D901D00F8039400FA0895ED91FC915B
:10181200119708950590F491E02D0895E881F981DA
:101822006A817B810895A881B9818A819B8108950B
:10183200E883F9836A837B8308957A936A93FA93A0
:10184200EA9308955A934A933A932A931A930A93DE
:1018520008955D814C813B812A8119810881089517
:00000001FF
