:040000000C94CE008E
:100004000C9400000C9400000C9400000C9400006C
:100014000C9400000C9400000C9400000C9400005C
:100024000C9400000C9400000C9400000C9401014A
:100034000C9400000C9405010C9400000C94000036
:100044000C9400000C9400000C9400000C9400002C
:100054000C9419010C9400000C9400000C94000002
:100064000C9400000C9406010C9400000C94000005
:100074000C9414010C9400000C9400000C940000E7
:100084000C9400000C9400001027E80364000A009C
:1000940001000010000110000100FFFFFFFFFFFF3F
:1000A400FFFF17B7D1380A0000000000000000006D
:1000B4000000803F0000803F0000000000000000BE
:1000C400000000000000000054657374696E67004E
:1000D40025640054756E6E696E670044757479000A
:1000E4002564202500450046002D00540049004D9C
:1000F40000520056616C76652100312E5072657392
:1001040073757265205445535400322E50726573D2
:10011400737572652054756E6E696E6700332E4672
:100124006C6578205445535400342E466C65782011
:1001340054756E6E696E6700352E50574D205445C8
:10014400535400362E50554D5020544553540037C7
:100154002E4F72646572205445535400382E5661F4
:100164006C7665204F72646572002A2A42524541BA
:100174004B212A2A000080C00400D9069E000400F6
:10018400E106A2000400EE06A60001001F07AA0073
:10019400020020077A010000F894EE27ECBBF1E09E
:1001A400F5BFE5BFE0936C00F8E1F1BDE1BD8DE082
:1001B400A2E0BB27ED938A95E9F780E090E1A0E007
:1001C400B1E0ED930197E9F7ECE7F1E085919591C2
:1001D400009761F0A591B59105901590BF01F001CC
:1001E40005900D920197E1F7FB01F0CF8BBFEFEF84
:1001F400EDBFE0E1EEBFC0E0D5E00C94E8040E945E
:100204007208A1E004C00EC00E947208A0E10E941E
:10021400170AE129E5BBE991EFBFE991A99119908A
:1002240009901895EA93E0E0E5BBE99118950A92E4
:100234001A92AA93BA93EA93FA93EFB7EA93A09126
:100244002B05A53058F0E0912B05F0E03497A2E39C
:10025400B0E00E94320AEF5FF94F07C0E0912B052E
:10026400A2E3EA9FF001E35DFA4FDF01E0910005AC
:10027400F0E0AE0FBF1FE5B1EC93A0910005A233EF
:1002840059F4E0912B05EF5FE0932B05E0E0E09358
:100294000005E1E0E0932C05E0912B05E770E09385
:1002A4002B05E066E7B9369AE0910005EF5FE0932D
:1002B4000005E991EFBFF991E991B991A9911990DC
:1002C400099018951A9310E0E0912C05E030E1F3C1
:1002D40010E0123350F40E947C080E948308E35D0E
:1002E400FA4F0E948D081F5FF4CF0E949908E350D3
:1002F400FA4FBF010E947C080E949C080E947C085F
:100304000E94A808F1F00E9499080E94B308E352E1
:10031400F94FE081EA1730F40E94B908E352F94F2B
:10032400E081EC930E9499080E94B308EF51F94FC1
:10033400E081AE1730F40E94B908EF51F94FE08123
:10034400EC93AFC00E94BE080A9B1DC00E94C60861
:100354000E94CD080B9B1F5F099B1150143008F0BD
:1003640013E01A93E0E0EA93ADDF0E94D3080E9401
:10037400E3080E94F208E350FA4FE0810E94E30888
:100384000E940309E1CF58C20E94BE080A9B49C0DB
:100394000E94C6080E9409090B9B1F5F099B11500C
:1003A400143008F013E01A93E0E0EA938BDF0E9424
:1003B4000F090E94B308E352F94FE081EA1750F4A1
:1003C4000E941209A352B94F0E940F09E350FA4F39
:1003D400E081EC930E940F090E94B308EF51F94F9A
:1003E400E081AE1750F40E941209AF51B94F0E9438
:1003F4000F09E350FA4FE081EC930E9415090E9423
:10040400D308F0E0EF51F94FE0810E94E3080E9425
:10041400F208E352F94FE0810E94E3080E942509A3
:10042400B5CF0AC21A9310E0E0912C05E030E1F355
:1004340010E0123350F40E942B090E948308EF5FEE
:10044400F94F0E948D081F5FF4CF0E949908EF5264
:10045400F94FBF010E942B090E949C080E942B099E
:100464000E94A808F1F00E9499080E943209EB52F8
:10047400F94FE081EA1730F40E943809EB52F94F42
:10048400E081EC930E9499080E943209E752F94FE7
:10049400E081AE1730F40E943809E752F94FE08149
:1004A400EC931881239608950E94BE080A9B1DC0F0
:1004B4000E94C6080E94CD080B9B1F5F099B115028
:1004C400143008F013E01A93E0E0EA93ABDF0E94E3
:1004D400D3080E94E3080E94F208EF52F94FE0812A
:1004E4000E94E3080E940309E1CFA6C10E94BE084E
:1004F4000A9B49C00E94C6080E9409090B9B1F5F02
:10050400099B1150143008F013E01A93E0E0EA93C9
:1005140089DF0E940F090E943209EB52F94FE081F2
:10052400EA1750F40E941209AB52B94F0E940F0906
:10053400EF52F94FE081EC930E940F090E943209B7
:10054400E752F94FE081AE1750F40E941209A75206
:10055400B94F0E940F09EF52F94FE081EC930E94CA
:1005640015090E94D308F0E0E752F94FE0810E9498
:10057400E3080E94F208EB52F94FE0810E94E3087D
:100584000E942509B5CF58C12497E2E3E883E0E04F
:10059400E983EA83EB830E943D09E4E1E7BFE0934A
:1005A4007D000E9443090A9B46C00B9908C00E9423
:1005B400680AEF5FFF4F6F4F7F4F0E944809099908
:1005C40007C00E94680A3197604070400E94480941
:1005D4000E946D0AA130E0E0BE07E0E08E07E0E093
:1005E4009E0734F4E1E0F0E060E070E00E94480926
:1005F4000E946D0AA436E0E0BE07E0E08E07E0E06A
:100604009E0734F0E3E6F0E060E070E00E94480901
:10061400E881F981A2E3B0E00E943A0AFBBDEABD99
:100624000E94C6080E944B09EC81FD816E817F8186
:100634000E946009B8CF0E946D09E5BBE0E0EBBD04
:10064400EABD0E94430992C01A930A9302E310E0A0
:100654000E943D090A9B2AC00B9902C00F5F1F4FDD
:10066400099902C0015010400130E0E01E0714F463
:1006740001E010E00436E0E01E0714F003E610E0A9
:10068400F801A2E3B0E00E943A0A0E94280AE9BDF8
:10069400A2E30A02F001E8BD0E94C6080E944B09C9
:1006A400F8010E942D0A0E946009D4CF0E947209A9
:1006B4008AC11A930A93AA81BB81EC911E2F00E090
:1006C4000D9B0160CA9B0260CC9B0460CE9B0860BA
:1006D400C99B0061CB9B0062CD9B0064CF9B0068EB
:1006E4000D9B02C0C99901C001C00E7ECA9B02C005
:1006F400CB9901C001C00D7DCC9B02C0CD9901C036
:1007040001C00B7BCE9B02C0CF9901C001C007770B
:100714000E94760951F00E940F09EB51F94FA1E0B4
:10072400A0830E940F090E9481090E94860941F05A
:100734000E940F090E949109E751F94FA1E0A0839B
:100744000E94760919F40E94860909F006C00E94E5
:100754000F090E9491090E9481091F5F143008F05B
:1007640010E0AA81BB811C93198108812496089505
:10077400E9810E9496090E949B09EB51F94FE0819F
:10078400E03021F0E9EEF0E00E949E090E949B090E
:10079400E751F94FE081E03021F0EBEEF0E00E9408
:1007A4009E090E949B090E94A20919F40E94A809AB
:1007B40009F004C0EDEEF0E00E949E090C94B90724
:1007C4000E94BE080A9B38C0EDB7FEB7FA93EA93BD
:1007D4001F936FDF1F910E94C608EFEEF0E00E94A6
:1007E4009E09E2E00E94AE09E1EFF0E00E949E095A
:1007F400E4E00E94AE09E3EFF0E00E949E09E6E027
:100804000E94AE09E5EFF0E00E949E09E0E0EA9361
:10081400EA93AEDFE2E0EA93E1E0EA93A9DFE4E001
:10082400EA93E2E0EA93A4DFE6E0EA93E3E0EA9302
:100834009FDF0E942509C6CF199108951A930A9340
:1008440010E000E00E943D09E4E1E7BFE0937D0091
:100854000A9B91C0EDB7FEB7FA93EA931F9329DF81
:100864001F910E94C608E7EFF0E00E949E090B99D1
:1008740005C0E091ED06EF5FE093ED06099905C030
:10088400E091ED06E150E093ED06A091ED06A43071
:1008940018F0E0E0E093ED06A091ED06A03011F42D
:1008A400099B01C003C0E3E0E093ED06E7E00E948A
:1008B400AE090E94B3090E94E308E0E0EA93E091E4
:1008C400ED06EA9355DFE5E00E9496090E94B3091C
:1008D400F0E0EB51F94FE0810E94E308E7E00E9469
:1008E40096090E94B309F0E0E751F94FE0810E94B4
:1008F400E3080E94BE090E94A20919F40E94A809F3
:1009040009F00AC0E1E0EBBDE4EFEABDE1E0E09309
:100914008700E4EFE09386000E94BE090F01EB51CB
:10092400F94FA081A13019F40E94A80909F00AC066
:10093400E3E0EBBDE0E2EABDE0E0E0938700E8EC51
:10094400E09386000E94BE090E94A20931F4F001DE
:10095400E751F94FA081A13009F00AC0E0E0EBBDF6
:10096400E8ECEABDE3E0E0938700E0E2E093860090
:100974000E9425096DCF0E946D09E093ED06E0E029
:10098400F0E0FBBDEABD0E947209E0E0E0930105DE
:10099400E0930205A0910105B091020514979CF41F
:1009A400E0910105F0910205EB51F94FA0E0A0831D
:1009B400E0910105F09102050E948109A1E0B5E0F2
:1009C4000E94C209E7CF09911991089510E007E048
:1009D400E0E0EBBBE1E0EABBE0E0E8BBEFEFE7BB64
:1009E400E0E0E5BBEFEFE4BBE0E0E2BBEFEFE1BB4F
:1009F400E0E0E3B9E0ECE2B9E0E0E0936200E09328
:100A04006100E0936500E0936400E2E2EFBDECE195
:100A1400EEBDE0E0EDBDECBD0E944309E0E0EBBDBE
:100A2400EABD0E947209E0E0E0937900E093780067
:100A3400E2E0E0938B00ECE1E0938A00E0E0E093F5
:100A44008900E0938800E3E1E0938100E7E8E09324
:100A54008000E0E0E0938700E0938600E093850067
:100A6400E0938400E0938300E0938200E7BFE09387
:100A74007D00E1E2E7B9EFECE6B9E8E0EA930E9431
:100A8400280878940B9B1F5F099B1150011708F4E9
:100A940010E0103011F4099B102F0E940F093097B9
:100AA40049F40E94C608EEEFF0E00E949E090A9BFA
:100AB40049DC61C0E130A0E0FA0749F40E94C608AD
:100AC400EEE0F1E00E949E090A9B5EDC54C0E23035
:100AD400A0E0FA0749F40E94C608E1E2F1E00E94AE
:100AE4009E090A9BE1DC47C0E330A0E0FA0749F421
:100AF4000E94C608EDE2F1E00E949E090A9BF6DC22
:100B04003AC0E430A0E0FA0749F40E94C608ECE3D6
:100B1400F1E00E949E090A9B37DD2DC0E530A0E07C
:100B2400FA0749F40E94C608E7E4F1E00E949E092E
:100B34000A9B8ADD20C0E630A0E0FA0749F40E944F
:100B4400C608E3E5F1E00E949E090A9B39DE13C062
:100B5400E730A0E0FA0749F40E94C608E0E6F1E0B5
:100B64000E949E090A9B6ADE06C00E94C608EEE641
:100B7400F1E00E949E09E6E9F0E0FA93EA930E940C
:100B8400030A80CFFFCF1A930A93AA81BB811296DE
:100B94000E94600A309729F1AA81BB8114960E94B1
:100BA400600A8F01309761F00230E0E01E07C0F068
:100BB400F80131978F01AA81BB811496ED93FC93C0
:100BC400AA81BB8112960E94C2093197AC81A0838D
:100BD400AA81BB810E94600AFF2312F00E94C2090D
:100BE40006C0AA81BB81EFEFFFEFED93FC9319815F
:100BF40008812596089526970E947C0A10E0AC850A
:100C0400BD85E0E0F0E0ED93FC93EA89FB89319641
:100C1400EA8BFB8B3197E4912E2FE03011F40C9486
:100C24002A07E12FE03039F4253211F411E002C033
:100C34000E94C8090CC1E130A9F4253219F40E94BC
:100C4400C80904C112E040E000E02D3211F401E0D3
:100C5400FEC02B3211F44BE2FAC0203211F440E210
:100C6400F6C002C0E23039F450E013E0203311F44E
:100C74000068EDC004C0E33011F00C942907203360
:100C840010F02A3308F007C0AAE05A9F502DE22F33
:100C9400E0535E0FDCC0E22FE33649F40E94D10931
:100CA400E889F989A481AA930E94D709CFC0E337C0
:100CB40041F40E94D1090E94DF090E945D081E2FA1
:100CC4000AC0E03761F40E94D1090E94DF090E9442
:100CD40067081E2F086002600F7730E035C0E436E5
:100CE40011F0E93611F4046002C0E53731F4ECE8A0
:100CF400F0E0EE83FF8315E00DC0E83511F40860E1
:100D040004C0E83711F00C942807E6E9F0E0EE831C
:100D1400FF8314E002FF14C00E94D1090E94E90974
:100D2400AB85AA233AF4EA85FB850E94130AEA8775
:100D3400FB874DE2403011F01F5F01C00B7F04C000
:100D44000E94D1090E94E90900FD11C0151778F429
:100D540007FF08C002FF04C00B7F242F115001C0FD
:100D640020E301C020E20E94C8095150EFCF312F87
:100D740001FF17C03030A1F003FF06C0EE81FF81F0
:100D84002591EE83FF8305C0AE81BF812D91AE8393
:100D9400BF830E94C809503009F051503150EACF46
:100DA4004BC020E3EE81FF810E94640AE887F98743
:100DB400EE81FF813296EE83FF83E885F985AA856B
:100DC400BB85AE17BF0750F02F5FA885B985EA85AC
:100DD400FB85EA1BFB0BEA87FB87EFCF2A3328F05E
:100DE40003FF02C0295F01C0295D04FD1AC021333D
:100DF40020F4A885B985119709F409C0531710F098
:100E040000FF01C013C020E207FF0BC020E3006114
:100E140002FF07C00B7F4A930E94D709503009F0A4
:100E240051500E94C809503009F051503150A885E2
:100E3400B985129708F0B5CF00FF08C0503031F0E3
:100E44005150E0E2EA930E94D709F8CF10E0DDCEDA
:100E5400AC85BD850E94600A0E94830A6496089549
:100E6400FF92F82E26970E947E0A0E94F10930977D
:100E740019F4EFEFFFEF25C0DE0116960E940F0A6A
:100E84008D010E94F109EE83FF83E0E0E887E987A2
:100E9400DE011A960E940F0A0E94600AFA93EA93EE
:100EA4001A930A93E5ECF5E0FA93EA93FE013A9675
:100EB400FA93EA93A0DE9F01AE81BF81E0E0EC9358
:100EC400F9010E94850A2A96FF900895FFE0FA9599
:100ED400F1F70895A1B3AF70A1BB919A9098F6DF92
:100EE400929AF4DFA0B39298F1DF929AEFDF92988E
:100EF400A7FDF5CF0895A07FAB2BA2BB929A0E94C9
:100F0400680792980E94680708959198A1B3A76F03
:100F1400A1BBB2B3BF70A881EEDFA881A295EBDFBD
:100F2400919A0C945B08929A0E946807E0B3929895
:100F34000E946807E07F08950E946807F4DFAE2FDF
:100F4400F2DF9198E295EA2B08950E946C070E94C3
:100F54009B09E05EF84FE081A981EA0FEA930E94C1
:100F64008707E981E0932407E881E0932507229627
:100F740008950E946C07E2E0EA930E9487070E94AA
:100F84006C07ECE0EA930E9487070E946C07E1E09B
:100F9400EA930E948707E0E0E0932507E0932407A3
:100FA4000895EF93FF93A8816894AA3039F0E894E8
:100FB400E0912607A0912407AE1760F0E091250781
:100FC400EF5FE0932507E0E0EA93E0912507EA93D9
:100FD400BCDF56F0E0912407EF5FE09324077ADF4B
:100FE400909AA881AA9391DFFF91EF910C945B08EA
:100FF4001A93A981BA81ED91A983BA831E2FE03097
:1010040019F01A93CEDFF5CF0EC01A93E981FA8155
:101014003196E983FA833197E4911E2FE03019F079
:101024001A93BFDFF3CF188123960895AA27BB270D
:101034001197F1F708959198A1B3A76FA1BBB2B32B
:10104400BF70A8810E947D07919A33C092989098AE
:10105400E881E0932607E058E0932207E881E05412
:10106400E09323070E94F8090E94F8090E94F809F6
:10107400DDDFE0E2EA93DFDFD9DFE8E20E94FE0988
:10108400E4E00E94FE09E5E80E94FE09A1B3AF7006
:10109400A1BB919A0E949E07E53011F0E0E009C0DF
:1010A4000E946C07E6E0EA930E9487070E94BB0750
:1010B400E1E021960895A991B991EE27FF276D915A
:1010C400662311F03196FBCF0895AA27BB27E99137
:1010D400F9910590002011F01196FBCFFD010895C0
:1010E4000A921A92AA93EA93EFB7EA9315B2E0919F
:1010F400ED060895EA81A5EFB5E0F0E0EE0FFF1FDD
:101104000895EA0FFB1FCF0160817181EA81A2E398
:10111400EA9FF0010895DF01EE27A10FBE1FEC91B5
:10112400F0E0E60FF71FDC01ED93FC930895EA81EC
:10113400F0E00895AE0FBF1F0E94600ADF01E2E3F2
:10114400F0E00E943F0ADB01EC930895AE0FBF1F4D
:10115400E0E0F0E0ED93FC93E0932C05E981E030CE
:1011640008950F01E350FA4FA081F0010895AA8178
:10117400B0E0A350BA4FDBCF1A9310E0E2E3F0E003
:10118400FA93EA930C94030A0E94BB07E0E0EA9303
:10119400EA930C94A707ECECF0E0FA93EA930C942E
:1011A4000708E0E0EA93E1E0EA930E94A707E3E09E
:1011B400F5E0FA93EA93E4EDF0E0FA93EA93E12F91
:1011C4000895FF27662777270E94770A84E00E9404
:1011D40032072896E3E0F5E0FA93EA930C94FA07D1
:1011E400E4E0EA93E1E0EA930E94A707E3E0F5E094
:1011F400FA93EA93E4EDF0E0FA93EA93E12FF0E056
:101204000895E8ECF0E0FA93EA930C94030AE7ED0E
:10121400F0E0FA93EA930C940708E12FF0E00895C4
:10122400A12FB0E00895E7E0EA93E0E0EA930E949A
:10123400A707E3E0F5E0FA93EA93E4EDF0E0FA932C
:10124400EA93E12FBECFE4E6F0E0FA93EA930C943C
:10125400030AEA81A9ECB6E0F0E0EE0FFF1F08955F
:101264000F01EF52F94FA081F0010895AA81B0E077
:10127400AF52B94F5CCFE2E3F0E0FA93EA930C94F7
:10128400030AE3E1E7BDE7E8E6BD08950E94720AB8
:101294000895EFEDF0E0FA93EA930E940708E0E086
:1012A400EA93E1E0EA930E94A707E3E0F5E0FA930A
:1012B400EA93E4EEF0E0FA93EA9308950E94770A41
:1012C40084E00E9432072896E3E0F5E0FA93EA937B
:1012D4000E94FA07B8CFE0E0E7BFE0937D000895ED
:1012E400E0E0E9BDE8BD0895E12FA1E0B0E00E948F
:1012F4001F0AA02FB0E0EA23FB2330970895E7519B
:10130400F94FA0E0A0830895E12FA0E1B0E00E948E
:101314001F0AA02FB0E0EA23FB2330970895EB5176
:10132400F94FA0E0A08379CFEA93E1E0EA930C942B
:10133400A707E881F0E00895FA93EA930C9407086C
:101344000F01EB51F94FA081A0300895F001E7514E
:10135400F94FA081A0300895EA93E0E0EA930C9459
:10136400A707E3E0F5E0FA93EA93E4EDF0E0FA93FB
:10137400EA93E091ED060895E091ED06F0E008951A
:10138400ED91FD913196FE93EE9308952A93ED85A8
:10139400FE85FA93EA93E989FA8909950895E8891B
:1013A400F9893497E88BF98B0895ED85FE85FA93D6
:1013B400EA93E989FA8909950895A889B98914965F
:1013C4000E94600AEE83FF83FA93EA930895A88942
:1013D400B98914960E94600AEA87FB870895DE01A2
:1013E4001C960E940F0A0E94600A08950E94180821
:1013F400E0E3EA930C941D08EA930E9487070C9497
:101404001808E991F991309639F080EA9FE0019744
:10141400F1F7A8953197C9F708950024AF0DB01DD1
:101424000895F195E195F0400895EE230E2EEA2FEC
:1014340019F0EE0F0A94E9F70895EE230E2EFD013C
:1014440021F0EE0FFF1F0A94E1F70895EF2FFF2715
:10145400E7FDFFEF08956F2F660F660B762F089553
:10146400FA9FF02DEB9FF00DEA9FE02DF10D08950A
:1014740017D0F6DF0EF4D5DF08950024112490E18F
:10148400AA0FBB1F001C111C0E1A1F0A18F40E0E03
:101494001F1E01C0A1609A9599F7FD01D00108951E
:1014A400E894F7FF02C0BDDF6894B7FF06C0A095BB
:1014B400B095119600F8039400FA0895ED91FC910B
:1014C400119708950590F491E02D0895E881F9812C
:1014D4006A817B810895A881B9818A819B8108955D
:1014E400E883F9836A837B8308957A936A93FA93F2
:1014F400EA9308955A934A933A932A931A930A9330
:1015040008955D814C813B812A8119810881089568
:00000001FF
