:020000000C945E
:1000020035010C9400000C9400000C9400000C9438
:1000120000000C9400000C9400000C9400000C945E
:1000220000000C9400000C9400000C9400000C944E
:1000320068010C9400000C947A010C9400000C945A
:1000420000000C9400000C9400000C9400000C942E
:1000520000000C9492010C9400000C9400000C948B
:1000620000000C9400000C947B010C9400000C9492
:1000720000000C948D010C9400000C9400000C9470
:1000820000000C9400000C9400001027E8036400A8
:100092000A0001000010000110000100FFFFFFFF35
:1000A20050524B4100008C420000F0410000A04140
:1000B200000000000000000000000000000000003E
:1000C200000000000000000000000000000000002E
:1000D200000000000000000000000000000000001E
:1000E200000000000000000000000000000000000E
:1000F20000000000000000000000000000000000FE
:1001020054657374696E670025640054756E6E6978
:100112006E67004475747900256420250045004609
:10012200002D00540049004D00520056616C766566
:10013200210044757479203A20002532642025007C
:10014200464C45580050524553004461696C790051
:100152005265686162696C69746174696F6E0049A5
:100162006E6C657421004F75746C657421002534C2
:1001720064202500312E50726573737572652054A8
:1001820045535400322E5072657373757265205454
:10019200756E6E696E6700332E466C657820544525
:1001A200535400342E466C65782054756E6E696E19
:1001B2006700352E50574D205445535400362E506B
:1001C200554D50205445535400372E4F726465727A
:1001D200205445535400382E56616C7665204F7278
:1001E20064657200392E5468726573686F6C643F7F
:1001F2000031302E50554D502056414C564500315D
:10020200312E4461696C7920746573740031322E29
:10021200526568616220746573740031332E5445EF
:1002220053540031342E54455354320031352E5438
:1002320045535433002A2A425245414B212A2A006F
:1002420080C00400D9069E000400DD06A20004005E
:10025200F606A6000400FA06AA000400FE06AE0096
:100262000200260742020000F894EE27ECBBF1E000
:10027200F5BFE5BFE0936C00F8E1F1BDE1BD8DE0B3
:10028200A2E0BB27ED938A95E9F780E090E1A0E038
:10029200B1E0ED930197E9F7E4E4F2E085919591FD
:1002A200009761F0A591B59105901590BF01F001FD
:1002B20005900D920197E1F7FB01F0CF8BBFEFEFB5
:1002C200EDBFE0E1EEBFC0E0D5E00C94820B0E94EE
:1002D2007D0FE130A0E0FA0741F415B2E091ED069E
:1002E200A1E00E945F15E12902C0E5B3E070E5BB21
:1002F2005AC012C00E947D0FEF3FAFEFFA0741F4E0
:1003020015B2E091ED06A0E10E945F15E12902C05D
:10031200E5B3E070E5BB47C0EA93E0E0E5BBE991F5
:1003220018950A921A92AA93BA93EA93FA93EFB79C
:10033200EA93A0912B05A53058F0E0912B05F0E04F
:100342003497A2E3B0E00E948515EF5FF94F07C032
:10035200E0912B05A2E3EA9FF001E35DFA4FDF0192
:10036200E0910005F0E0AE0FBF1FE5B1EC93A09164
:100372000005A23359F4E0912B05EF5FE0932B05C2
:10038200E0E0E0930005E1E0E0932C05E0912B052D
:10039200E770E0932B05E066E7B9369AE091000535
:1003A200EF5FE0930005E991EFBFF991E991B9910F
:1003B200A9911990099018951A9310E0E0912C05D3
:1003C200E030E1F310E0123350F40E94910F0E94EA
:1003D200980FE35DFA4F0E94A20F1F5FF4CF0E94B5
:1003E200AE0FBF010E94910F0E94B30F0E94910FA6
:1003F2000E94BF0F0E94AE0FA081AF3B20F00E946F
:10040200AE0FA0E0A083E981E030F1F00E94C80FB6
:100412000E94CB0FE352F94FE081EA1730F40E94B9
:10042200D10FE352F94FE081EC930E94C80F0E9472
:10043200CB0FEF51F94FE081AE1730F40E94D10F8C
:10044200EF51F94FE081EC93B1C00E94D60F0A9BA5
:100452001DC00E94DE0F0E94E50F099B11500B9BED
:100462001F5F143008F013E01A93E0E0EA93A4DF70
:100472000E94EB0F0E94FB0F0E940A10E350FA4FFA
:10048200E0810E94FB0F0E941B10E1CFB9C20E94C3
:10049200D60F0A9B49C00E94DE0F0E942110099BC1
:1004A20011500B9B1F5F143008F013E01A93E0E029
:1004B200EA9382DF0E9427100E94CB0FE352F94F8A
:1004C200E081EA1750F40E942A10A352B94F0E9409
:1004D2002710E350FA4FE081EC930E9427100E940C
:1004E200CB0FEF51F94FE081AE1750F40E942A1062
:1004F200AF51B94F0E942710E350FA4FE081EC93BD
:100502000E942D100E94EB0FF0E0EF51F94FE081B5
:100512000E94FB0F0E940A10E352F94FE0810E94F1
:10052200FB0F0E943D10B5CF6BC21A9310E0E09111
:100532002C05E030E1F310E0123350F40E94431036
:100542000E94980FEF5FF94F0E94A20F1F5FF4CF36
:100552000E94C80FEF52F94FBF010E9443100E9440
:10056200B30F0E9443100E94BF0FE981E030F1F007
:100572000E94C80F0E944A10EB52F94FE081EA171D
:1005820030F40E945010EB52F94FE081EC930E943C
:10059200C80F0E944A10E752F94FE081AE1730F4BB
:1005A2000E945010E752F94FE081EC931881239694
:1005B20008950E94D60F0A9B1DC00E94DE0F0E9462
:1005C200E50F099B11500B9B1F5F143008F013E0DD
:1005D2001A93E0E0EA93A9DF0E94EB0F0E94FB0F5F
:1005E2000E940A10EF52F94FE0810E94FB0F0E9415
:1005F2001B10E1CF05C20E94D60F0A9B45C00E9484
:10060200DE0F0E942110099B11500B9B1F5F1430BB
:1006120008F013E01A93E0E00E9455100E944A107D
:10062200EB52F94FE081EA1750F40E942A10AB52C4
:10063200B94F0E942710EF52F94FE081EC930E94CC
:1006420027100E944A10E752F94FE081AE1750F48A
:100652000E942A10A752B94F0E942710EF52F94F59
:10066200E081EC930E942D100E94EB0F0E94591022
:100672000E94FB0F0E940A10EB52F94FE0810E9488
:10068200FB0F0E943D10B9CFBBC11A9312E30E9427
:100692005E100E9464100A9B1EC0099B11500B9BA6
:1006A2001F5F113008F411E0143608F013E6E2E39C
:1006B200E19FF0010E947515EBBDA2E31A02F00161
:1006C200EABD0E94DE0F0E946910E12F0E94FB0F1B
:1006D2000E943D10E0CF0E947E10E5BB0E94831075
:1006E2008FC11A930A9302E310E00E945E100A9BE4
:1006F20025C0099902C0015010400B9902C00F5F3A
:100702001F4F0130E0E01E0714F401E010E0043650
:10071200E0E01E0714F003E610E0F801A2E3B0E007
:100722000E948D150E9487100E94DE0F0E946910A0
:10073200F8010E948F100E943D10D9CF0E949D1097
:10074200E8BB71C21A930A93AA81BB81EC911E2F56
:1007520000E00D9B0160CA9B0260CC9B0460CE9BB3
:100762000860C99B0061CB9B0062CD9B0064CF9B5C
:1007720000680D9B02C0C99901C001C00E7ECA9BD0
:1007820002C0CB9901C001C00D7DCC9B02C0CD99A6
:1007920001C001C00B7BCE9B02C0CF9901C001C03A
:1007A20007770E94A11051F00E942710EB51F94FD8
:1007B200A1E0A0830E9427100E94AC100E94B110F9
:1007C20041F00E9427100E94BC10E751F94FA1E0AE
:1007D200A0830E94A11019F40E94B11009F006C072
:1007E2000E9427100E94BC100E94AC101F5F1430A0
:1007F20008F010E0AA81BB811C931981088124961C
:100802000895E9810E94C1100E94C610EB51F94F70
:10081200E081E03011F00E94C9100E94C610E75139
:10082200F94FE081E03011F00E94CF100E94C61013
:100832000E94D51019F40E94DB1009F002C00E9438
:10084200E110229608950E94D60F0A9B34C0EDB79C
:10085200FEB7FA93EA931F9375DF1F910E94DE0F92
:10086200E5E2F1E00E94E7100E94EB100E94B20E56
:10087200E7E2F1E00E94E7100E94F010E9E2F1E005
:100882000E94E7100E94F610EBE2F1E00E94E710EE
:100892000E94FC10B6DF0E940011B3DFE4E0EA938D
:1008A200E2E0EA93AEDFE6E0EA93E3E0EA93A9DF6F
:1008B2000E943D10CACFA4C00E94D60F0E946410AD
:1008C2000A9B86C0EDB7FEB7FA93EA931F933ADF0D
:1008D2001F910E94DE0FEDE2F1E00E94E7100999FC
:1008E20005C0E091ED06E150E093ED060B9905C0DD
:1008F200E091ED06EF5FE093ED06A091ED06A430E6
:1009020018F0E0E0E093ED06A091ED06A03011F4BE
:100912000B9B01C003C0E3E0E093ED06E7E00E9419
:100922000511E091ED060E94FB0F0E9413110E9437
:100932001C11EB51F94FE0810E94FB0FE7E00E948E
:10094200C1100E941C11E751F94FE0810E94FB0F78
:100952000E9428110E94D51019F40E94DB1009F0A0
:100962000AC0E1E0EBBDE4EFEABDE1E0E09387001D
:10097200E4EFE09386000E9428110F01EB51F94F3A
:10098200A081A13019F40E94DB1009F008C00E9476
:100992002C11E0E0E0938700E8ECE09386000E94EF
:1009A20028110E94D51031F4F001E751F94FA081CE
:1009B200A13009F00AC0E0E0EBBDE8ECEABDE3E0FB
:1009C200E0938700E0E2E09386000E943D1078CF3A
:1009D2000E947E10E093ED06E0E0F0E0FBBDEABD90
:1009E2000E9431110E9437110E943C113CF40E9476
:1009F20042110E9447110E944D11F6CF0E945511DB
:100A0200199108951A930A9310E002E30E945E106E
:100A12000E9464100A9B79C0EDB7FEB7FA93EA937D
:100A22001F9390DE1F911093ED060E94DE0FE4E308
:100A3200F1E00E94E7100E94F6100E9459110E94F4
:100A42005E110E9413110E941C11EB51F94FE081BB
:100A52000E94FB0FE7E00E94C1100E941C11E751A7
:100A6200F94FE0810E94FB0F0E9428110E94D510CD
:100A720019F40E94DB1009F00AC0E9E0EBBDE4ECD6
:100A8200EABDE9E0E0938700E4ECE09386000E948F
:100A920028110F01EB51F94FA081A13019F40E94E6
:100AA200DB1009F00AC0EDE0EBBDECEAEABDE5E0DF
:100AB200E0938700ECEDE09386000E9428110E94EB
:100AC200D51031F4F001E751F94FA081A13009F0BE
:100AD2000AC0E5E0EBBDECEDEABDEDE0E093870096
:100AE200ECEAE0938600099B01500B9B0F5F0130FB
:100AF20008F401E0043608F003E6E2E3E09FF001C7
:100B02000E9487100E94641185CF0E947E100E946D
:100B12006A110E949D10E9BDE0E0E8BD0E94371114
:100B22000E943C113CF40E9442110E9447110E9413
:100B32004D11F6CF0E94551176C01A930A9300E028
:100B420010E00E945E100A9B6EC0609780E1A0E0F8
:100B5200B0E0E2EBF0E00E94FA15099902C0015000
:100B620010400B9902C00F5F1F4F0430E0E01E07D8
:100B720014F000E010E000240016010611F40B9BB3
:100B820001C002C003E010E00A93E1E0EA93CDDC89
:100B92000A93E1E0EA9310DCF801DE010E946D1194
:100BA200FF93EF930E947211A1EDB6E00E947911BA
:100BB2007F936F93FF93EF930E947211A9EDB6E0BA
:100BC2000E947911AF91BF918F919F910E948511DF
:100BD200AF91BF910E94C2150E94DE0FE2E4F1E0E4
:100BE2000E94E710E5E00E940511F8010E948E11B3
:100BF2000E949711E0E00E94C110E7E4F1E00E9438
:100C0200E710E5E00E94C1100E9459110E949A115A
:100C1200ADEFB5E0A00FB11FEC910E94FB0F0E9457
:100C22003D10609690CF0991199108952897E0E0C0
:100C3200E883E983EA83EB83EC83ED83EE83EF833E
:100C42000E94EC1500E020E030E014E60E949F11C3
:100C5200309729F00E94A2110E94A51109F403C045
:100C6200E0E0F0E01AC00E94A211EB51F94F0E949D
:100C7200AB11309719F0EFEFFFEF02C0E1E0F0E0C7
:100C8200DF010E94A2110E94A51119F0E1E0F0E03B
:100C920002C0EFEFFFEF0E94AE11AF01FA01EE0FBB
:100CA200FF1F0E94B5110E944C140E94DB139F018A
:100CB2000E94A211EE5DF84F0E94BE11F9010E943E
:100CC200C111EE83FF83688779870E94C8110E9451
:100CD2006D11FF93EF93DF010E94CD110E944C141E
:100CE200AF91BF910E94C2150E94D4117F936F935E
:100CF200FF93EF930E94C8110E94E3110E94BC155A
:100D02000E94E811AF91BF918F919F910E944C1464
:100D12007F936F93FF93EF930E94F9110E94E31167
:100D22000E94CD110E94FE11AF91BF918F919F91B0
:100D32000E9415120E94F9110E946D110E941C124C
:100D42000E94D5150E9421120E9426120E942F1580
:100D520009F010F40C94B0060E94261205C00E94FD
:100D62002B1230F40E943312EA87FB876C877D874F
:100D7200F90131960E94B5110E942F1509F010F465
:100D82000C94D5060E9438120E9441120E9446120B
:100D92000E944B12E09387000E944612A6E8B0E040
:100DA2000E94D913EC932BC0F90131970E94B5111F
:100DB2000E942F1568F40E9438120E9450120E945D
:100DC2005512EBBD0E9446120E94D913EABD17C00C
:100DD200F90131970E94B5110E942F1558F0F901BF
:100DE20031960E94B5110E942F1519F010F00C9443
:100DF200FB0601C004C00E9438120E9457120E94D2
:100E0200F315B8C0609780E1A0E0B0E0E2ECF0E05A
:100E12000E94FA150E94EE1510E021E030E00E94D7
:100E2200DE0FECE4F1E00E94E7100E943D100E9408
:100E32005C120E9464100A9B80C0EDB7FEB7FA9361
:100E4200EA931F937FDC1F911093ED06E0E00E946E
:100E520037110E943C112CF40E9461120E944D1124
:100E6200F8CF1A93E1E0EA93A7DA0E946A12CF015F
:100E7200BF010F01DE0114960E946D11FF93EF93E3
:100E82000E946D120E9471120E9475127F936F93DD
:100E9200FF93EF930E9478120E9427100E947C1207
:100EA2000E947512AF91BF918F919F910E948511FF
:100EB200AF91BF910E94C2151A930E942710E3506E
:100EC200FA4FE081EA930E942710DE0116960E94F3
:100ED200E3110E94BC150E94DA15A8DE099902C02E
:100EE200215030400B9902C02F5F3F4F332312F441
:100EF20020E030E02430E0E03E0714F023E030E070
:100F02000E94F6100E9459110E949A11F9010E9442
:100F12007F120E94B8150E948F100E942710DF01D5
:100F2200EE5DF84F0F01FD010E948E11D0010E946B
:100F3200D913EC930E941B107ECF0E947E10E5BB5A
:100F4200E0E00E9437110E943C116CF40E944211B1
:100F52000E9447110E9442110E947F120E94571262
:100F62000E944D11F0CFE0E00E946A110E948612A9
:100F72000E94F515649608952497E0E0E883E983DA
:100F8200E0E8EA83EFEBEB83EE81E093ED06EE819E
:100F9200EA93E1E0EA93C9DAEE81F0E0CF010F01D2
:100FA200EB52F94F0E94BE11F001EF52F94F0E942D
:100FB200AB110E9475127F936F93FF93EF930E9480
:100FC2007812EE810E9459100E948E12AF91BF9149
:100FD2008F919F910E9485110E94D015AD81A13001
:100FE20019F40E94901208F005C00E949B120E9400
:100FF200501211C0AD81A13039F00E94901209F057
:1010020010F40C94050801C005C00E949B120E94B6
:10101200411201C003C00A9B07C0B9CF0E949B12B4
:101022000E9457120E94A412279608950E94DE0F72
:10103200E2E5F1E00E94E7100E943D100E945C127E
:101042000E942C110E94AA120E9464100E94B112E6
:101052000E94FC100E94B9120E94BD120E94C1128D
:101062000E94C5120E9400110E94CA120E94EB1037
:101072000E94B9120E94CE120E94D312E0E0E5BB98
:101082000E94A4120E94B1120E94BD12E2E3EA93EE
:1010920073DF0E9400110E94CA120E94CE120E94A7
:1010A200D3120E94EB100E94B9120E94C5120E9434
:1010B200FC100E94B912E0E0E5BB0E94A4120E945B
:1010C200D812E9E1EA9358DF0E94BD12EDE2EA93F9
:1010D20053DF0E94C5120E94FC100E94B9120E94A6
:1010E200D812EEE1EA9348DF0E940011E3E2EA93AC
:1010F20043DF0E94EB100E94B9120E94FC100E9472
:10110200B9120E94D812E7E3EA9336DFE3E0EA93EA
:10111200E1E0EA930E94CA120E94D3120E94FC10DC
:101122000E94B912E0E0E5BB0E947E10E093ED065A
:10113200E0E0E5BBE8BB0E9483100E94861208959E
:101142000E94EE1510E028EB3BE00E945E100E9428
:101152006410E9E0E9BDE4ECE8BD0E94DE0FEDE2D7
:10116200F1E00E94E7100A9B37C0EDB7FEB7FA9391
:10117200EA931F93E7DA1F911093ED060E942C1158
:101182000E94AA12E0E00E94C110E1E6F1E00E9492
:10119200E7100E94DD12099909C0E0E00E94C11027
:1011A200E1E6F1E00E94E7100E94DD120B9911C006
:1011B200E0E00E94C110E8E6F1E00E94E710E12FB2
:1011C200AEEEB6E0F0E0EE0FFF1FAE0FBF1F0E94C3
:1011D20041120E946411C7CF0E947E100E943711F3
:1011E2000E943C114CF40E9442110E947F120E9404
:1011F20057120E944D11F4CF0E94E6120E94F21281
:101202000E94F8120E94F51524960895689788E1C5
:10121200A0E0B0E0E2EDF0E00E94FA150E94EE15C7
:101222000E94FE120E9464100E945C120E9403132C
:101232000A9B0EC1EDB7FEB7FA93EA931F9382DAC7
:101242001F911093ED060E946A12CF01BF010F0198
:10125200DE011C960E946D11FF93EF930E946D12A6
:101262000E9471120E9475127F936F93FF93EF9306
:101272000E9478120E9427100E947C120E9475120E
:10128200AF91BF918F919F910E948511AF91BF91B4
:101292000E94C215099B01500B9B0F5F093208F097
:1012A20008E20E940A13EC83FD836E837F830E940F
:1012B2000F13AC81BD818E819F810E941813EC8136
:1012C200FD816E817F81A091F606B091F706809133
:1012D200F8069091F9060E949C147F936F93FF93F6
:1012E200EF930E940F130E94E811AF91BF918F916B
:1012F2009F910E944C147F936F93FF93EF930E94F0
:101302002313AC81BD818E819F810E94FE11AF911A
:10131200BF918F919F910E944C14E887F9876A8749
:101322007B87EC81FD816E817F810E942C13EC8989
:10133200FD896E897F890E94D913EC93A885B985AE
:101342008A859B850E9426120E942F1509F010F4AF
:101352000C94AE090E9426120BC0A885B9858A8515
:101362009B850E9433120E942F1530F40E94331283
:10137200E887F9876A877B870E94FC100E943713EF
:101382000E945E110E94EB100E943713ECE3F1E021
:10139200FA93EA93E88DF98D6A8D7B8D0E949711FD
:1013A2000E94F0100E945911E0E7F1E0FA93EA93EB
:1013B200EC85FD856E857F850E949711E0E00E9495
:1013C20037110E943C112CF40E9461120E944D11AF
:1013D200F8CF0E949F110E943A1309F010F40C9466
:1013E200010A0E9464100E9446130E944B12E0936D
:1013F20087000E9446130E94DB13E093860025C0FB
:101402000E949F110E944B1370F4E4E10E94571353
:101412000E9446130E944B12EBBD0E9446130E948B
:10142200DB13EABD12C00E949F110E944B1348F0C9
:101432000E949F110E943A1319F010F00C94220A94
:1014420001C003C0E0E00E9457130E943D10F0CE9D
:10145200E0E00E9457130E94E6120E94F2120E94DC
:10146200F8120E94F5156C960895689788E1A0E03D
:10147200B0E0EAEEF0E00E94FA150E94EC150E943C
:10148200FE120E9464100E945C120E9403130A9BC7
:101492002BC1EDB7FEB7FA93EA931F9353D91F916D
:1014A2001093ED060E946A12CF01BF010F01DE0107
:1014B2001E960E946D11FF93EF930E946D120E947F
:1014C20071120E9475127F936F93FF93EF930E94A4
:1014D20078120E9427100E947C120E947512AF910E
:1014E200BF918F919F910E948511AF91BF910E94F0
:1014F200C215099B01500B9B0F5F0D3308F00CE3E3
:10150200E091E706F0E0309719F0EFEFFFEF02C04D
:10151200E1E0F0E0DF01E091EB06F0E0309719F056
:10152200E1E0F0E002C0EFEFFFEF0E94AE11AF0189
:10153200FA01EE0FFF1F0E945C130E944C140E94DE
:10154200D9130E2F0E940A13EE83FF8368877987CF
:101552000E940F130E941C120E9418130E94D411A1
:101562007F936F93FF93EF930E940F130E94E811F2
:10157200AF91BF918F919F910E944C147F936F9373
:10158200FF93EF930E9423130E941C120E94FE11EC
:10159200AF91BF918F919F910E941512EE81FF81B1
:1015A200688579850E942C13EE89FF89688D798D73
:1015B2000E94D913EC930E9421120E9426120E94CB
:1015C2002F1509F010F40C94E90A0E94261205C0A6
:1015D2000E942B1230F40E943312EA87FB876C8739
:1015E2007D870E94FC100E9437130E949A11E02FFF
:1015F2000E94FB0F0E94F6100E9459110E949A113C
:10160200EA8DFB8D6C8D7D8D0E9497110E94F010EA
:10161200EFEFFFEFE417F50711F40E94C910042E53
:10162200052A11F40E94E110E1E0F0E0E417F50769
:1016320011F40E94CF10E0E00E9437110E943C1189
:101642002CF40E9461120E944D11F8CF0E949F114A
:1016520031960E945C130E942F1509F010F40C942D
:10166200420BE0E0E7BFE4E1E0937D000E94551207
:10167200E09387000E9446120E94DB13E0938600EB
:101682002CC00E949F1131970E945C130E942F155B
:1016920060F4E4E10E9457130E945512EBBD0E94D0
:1016A20046120E94DB13EABD18C00E949F113197B7
:1016B2000E945C130E942F1560F00E949F113196C8
:1016C2000E945C130E942F1519F010F00C946A0B03
:1016D20001C003C0E0E00E945713E4EFF1E0FA9387
:1016E200EA930E94A013D3CEE0E00E9457130E9417
:1016F200E6120E94F2120E94F8120E94F3156E96F0
:10170200089510E00EE0E0E0EBBBE1E0EABBE0E0D0
:10171200E8BBEFEFE7BBE0E0E5BBEFEFE4BBE0E007
:10172200E2BBEFEFE1BBE0E0E3B9E0ECE2B9E0E01D
:10173200E0936200E0936100E0936500E09364004F
:10174200E2E2EFBDECE1EEBDE0E0EDBDECBDE3E1D8
:10175200E7BDE7E8E6BD0E9483100E949D10E0937A
:101762007900E0E0E0937800E2E0E0938B00ECE1C6
:10177200E0938A00E0E0E0938900E0938800E3E1EF
:10178200E0938100E7E8E0938000E0E0E0938700E7
:10179200E09386000E943111E0938300E0E0E09341
:1017A20082000E945713E1E2E7B9EFECE6B9E1E00B
:1017B200E0BDE8E0EA930E94330F7894E0E8EFBFDF
:1017C200099905C0103011F4102F01C011500B9B64
:1017D2001F5F011708F410E00E942710309759F498
:1017E2000E94DE0FE6E7F1E00E94E7100A9902C0CC
:1017F2000E942602CAC0E130A0E0FA0759F40E9412
:10180200DE0FE6E8F1E00E94E7100A9902C00E94AA
:101812004802BBC0E230A0E0FA0759F40E94DE0F92
:10182200E9E9F1E00E94E7100A9902C00E94DA0297
:10183200ACC0E330A0E0FA0759F40E94DE0FE5EAFB
:10184200F1E00E94E7100A9902C00E94FC029DC0CA
:10185200E430A0E0FA0759F40E94DE0FE4EBF1E075
:101862000E94E7100A9902C00E9446038EC0E5302A
:10187200A0E0FA0759F40E94DE0FEFEBF1E00E94BC
:10188200E7100A9902C00E9472037FC0E630A0E00E
:10189200FA0759F40E94DE0FEBECF1E00E94E71028
:1018A2000A9902C00E94240470C0E730A0E0FA073F
:1018B20059F40E94DE0FE8EDF1E00E94E7100A9968
:1018C20002C00E945D0461C0E830A0E0FA0749F45A
:1018D2000E94DE0FE6EEF1E00E94E7100A9B2DD98E
:1018E20054C0E930A0E0FA0749F40E94DE0FE3EFAA
:1018F200F1E00E94E7100A9B85D847C0EA30A0E0D9
:10190200FA0749F40E94DE0FE1E0F2E00E94E710DC
:101912000A9B78DA3AC0EB30A0E0FA0749F40E9459
:10192200DE0FEFE0F2E00E94E7100A9B7FDB2DC0A2
:10193200EC30A0E0FA0749F40E94DE0FEDE1F2E09C
:101942000E94E7100A9BFCDB20C0ED30A0E0FA0702
:1019520049F40E94DE0FE5E2F2E00E94E7100A9BE2
:1019620055DC13C0EE30A0E0FA0749F40E94DE0F06
:10197200EEE2F2E00E94E7100A9B77DD06C00E94C9
:10198200DE0FE7E3F2E00E94E710E4E6F0E0FA930C
:10199200EA930E94A01314CFFFCF1A930A93AA814D
:1019A200BB8112960E94B815309759F1AA81BB816A
:1019B20014960E94B8158F01309761F00230E0E072
:1019C2001E07F0F0F80131978F01AA81BB811496AE
:1019D200ED93FC93AA81BB811296ED91FD91319614
:1019E200FE93EE933197AC81A083AA81BB810E94C2
:1019F200B815FF232AF0ED91FD913196FE93EE93F7
:101A020004C0AA81BB810E944112198108812596D6
:101A1200089526970E94EC1510E0AC85BD850E94C2
:101A22005712EA89FB893196EA8BFB8B3197E49155
:101A32002E2FE03011F40C94350EE12FE03039F402
:101A4200253211F411E002C00E9465130CC1E1308D
:101A5200A9F4253219F40E94651304C112E040E092
:101A620000E02D3211F401E0FEC02B3211F44BE202
:101A7200FAC0203211F440E2F6C002C0E23039F47A
:101A820050E013E0203311F40068EDC004C0E330ED
:101A920011F00C94340E203310F02A3308F007C0F2
:101AA200AAE05A9F502DE22FE0535E0FDCC0E22FD6
:101AB200E33649F40E946E13E889F989A481AA9356
:101AC2000E947413CFC0E33741F40E946E130E9448
:101AD2007C130E94680F1E2F0AC0E03761F40E9437
:101AE2006E130E947C130E94720F1E2F0860026008
:101AF2000F7730E035C0E43611F0E93611F40460B6
:101B020002C0E53731F4ECE8F0E0EE83FF8315E044
:101B12000DC0E83511F4086004C0E83711F00C94E8
:101B2200330EE6E9F0E0EE83FF8314E002FF14C017
:101B32000E946E130E948613AB85AA233AF4EA85AB
:101B4200FB850E945315EA87FB874DE2403011F076
:101B52001F5F01C00B7F04C00E946E130E94861398
:101B620000FD11C0151778F407FF08C002FF04C07A
:101B72000B7F242F115001C020E301C020E20E94FC
:101B820065135150EFCF312F01FF17C03030A1F054
:101B920003FF06C0EE81FF812591EE83FF8305C01E
:101BA200AE81BF812D91AE83BF830E9465135030F9
:101BB20009F051503150EACF4BC020E3EE81FF8152
:101BC2000E94C715E887F987EE81FF813296EE837E
:101BD200FF83E885F985AA85BB85AE17BF0750F05C
:101BE2002F5FA885B985EA85FB85EA1BFB0BEA878F
:101BF200FB87EFCF2A3328F003FF02C0295F01C021
:101C0200295D04FD1AC0213320F4A885B9851197F6
:101C120009F409C0531710F000FF01C013C020E2FD
:101C220007FF0BC020E3006102FF07C00B7F4A934E
:101C32000E947413503009F051500E9465135030C5
:101C420009F051503150A885B985129708F0B5CFE7
:101C520000FF08C0503031F05150E0E2EA930E9498
:101C62007413F8CF10E0DDCEAC85BD850E94B815A7
:101C72000E94F31564960895FF92F82E26970E940B
:101C8200EE150E948E13309719F4EFEFFFEF25C087
:101C9200DE0116960E944F158D010E948E13EE836F
:101CA200FF83E0E0E887E987DE011A960E944F157C
:101CB2000E94B815FA93EA931A930A93EEECFCE0A9
:101CC200FA93EA93FE013A96FA93EA93A2DE9F010F
:101CD200AE81BF81E0E0EC93F9010E94F5152A96EE
:101CE200FF900895FFE0FA95F1F70895A1B3AF7060
:101CF200A1BB919A9098F6DF929AF4DFA0B39298E2
:101D0200F1DF929AEFDF9298A7FDF5CF0895A07FB9
:101D1200AB2BA2BB929A0E94730E92980E94730EF2
:101D220008959198A1B3A76FA1BBB2B3BF70A88168
:101D3200EEDFA881A295EBDF919A0C94660F929A3E
:101D42000E94730EE0B392980E94730EE07F089592
:101D52000E94730EF4DFAE2FF2DF9198E295EA2B28
:101D620008950E94770E0E94C610EA5DF84FE08146
:101D7200A981EA0FEA930E94920EE981E0932A0771
:101D8200E881E0932B07229608950E94770EE2E005
:101D9200EA930E94920E0E94770EECE0EA930E9470
:101DA200920E0E94770EE1E0EA930E94920EE0E02A
:101DB200E0932B07E0932A070895EF93FF93A881FE
:101DC2006894AA3039F0E894E0912C07A0912A0790
:101DD200AE1760F0E0912B07EF5FE0932B07E0E096
:101DE200EA93E0912B07EA93BCDF56F0E0912A07D1
:101DF200EF5FE0932A077ADF909AA881AA9391DF96
:101E0200FF91EF910C94660F1A93A981BA81ED911B
:101E1200A983BA831E2FE03019F01A93CEDFF5CFD3
:101E22000EC01A93E981FA813196E983FA833197D8
:101E3200E4911E2FE03019F01A93BFDFF3CF18811F
:101E420023960895AA27BB271197F1F70895919831
:101E5200A1B3A76FA1BBB2B3BF70A8810E94880EC5
:101E6200919A33C092989098E881E0932C07E058B9
:101E7200E0932807E881E054E09329070E94951334
:101E82000E9495130E949513DDDFE0E2EA93DFDF03
:101E9200D9DFE8E20E949B13E4E00E949B13E5E88D
:101EA2000E949B13A1B3AF70A1BB919A0E94A90E8D
:101EB200E53011F0E0E009C00E94770EE6E0EA9317
:101EC2000E94920E0E94C60EE1E021960895A99109
:101ED200B991EE27FF276D91662311F03196FBCF62
:101EE2000895AA27BB27E991F9910590002011F0E6
:101EF2001196FBCFFD0108950A921A92AA93BA9302
:101F0200EA93FA93EFB7EA93E091ED06AEEEB6E00C
:101F1200F0E0EE0FFF1FAE0FBF1F0E94B81508952D
:101F2200EA81A5EFB5E0F0E0EE0FFF1F0895EA0F9A
:101F3200FB1FCF0160817181EA81A2E3EA9FF00178
:101F42000895DF01EE27A10FBE1FEC91F0E0E60F2E
:101F5200F71FDC01ED93FC930895EA81F0E0E35072
:101F6200FA4F0895AE0FBF1F0E94B815DF01E2E3DA
:101F7200F0E00E949215DB01EC930895AE0FBF1FB3
:101F8200E0E0F0E0ED93FC93E0932C050895EA8104
:101F9200F0E008950F01E350FA4FA081F001089597
:101FA200AA81B0E0A350BA4FF2CF1A9310E0E2E355
:101FB200F0E0FA93EA930C94A0130E94C60EE0E0BC
:101FC200EA93EA930C94B20EE2E0F1E0FA93EA9318
:101FD2000C94120FE0E0EA93E1E0EA930E94B20E61
:101FE200E3E0F5E0FA93EA93EAE0F1E0FA93EA93A8
:101FF200E12F0895FF27662777270E94DA1584E0EC
:102002000E943D0E2896E3E0F5E0FA93EA930C94E1
:10201200050FE4E0EA93E1E0EA930E94B20EE3E006
:10202200F5E0FA93EA93EAE0F1E0FA93EA93E12F1A
:10203200F0E00895E8ECF0E0FA93EA930C94A01330
:10204200EDE0F1E0FA93EA930C94120FE12FF0E045
:102052000895A12FB0E00895E7E0EA93E0E0EA9363
:102062000E94B20EE3E0F5E0FA93EA93EAE0F1E0CF
:10207200FA93EA93E12FBECFE4E6F0E0FA93EA9313
:102082000C94A013EA81A9ECB6E0F0E0EE0FFF1F7A
:1020920008950F01EF52F94FA081F0010895AA812E
:1020A200B0E0AF52B94F73CFEA930E949602CECFFF
:1020B200F0E0E752F94FE0810895E2E3F0E0FA93AD
:1020C200EA930C94A013E4E1E7BFE0937D00089546
:1020D200E5E1F1E0FA93EA930E94120FE0E0EA935D
:1020E200E1E0EA930E94B20EE3E0F5E0FA93EA93AC
:1020F200EAE1F1E0FA93EA930895E0E0E7BFE093C2
:102102007D000895E0E0EBBDEABD08950E947515DB
:10211200E9BDA2E30A02F001E8BD08950E9480151C
:102122000E94DA1584E00E943D0E2896E3E0F5E075
:10213200FA93EA930C94050FE0E0E9BDE8BD089537
:10214200E12FA1E0B0E00E946715A02FB0E0EA23E2
:10215200FB2330970895E751F94FA0E0A08308953B
:10216200E12FA0E1B0E00E946715A02FB0E0EA23C2
:10217200FB2330970895EB51F94FA0E0A08366CF7F
:10218200EA93E1E0EA930C94B20EE881F0E008955C
:10219200EFE1F1E0FA93EA930C94120FE1E2F1E03D
:1021A200FA93EA930C94120F0F01EB51F94FA081AD
:1021B200A0300895F001E751F94FA081A0300895B1
:1021C200E3E2F1E0FA93EA930C94120FFA93EA93A2
:1021D2000C94120FE2E0EA93E0E0EA930895E4E05F
:1021E200EA93E0E0EA930C94B20EE6E0EA93E0E0D0
:1021F200EA930C94B20EE0E0EA93EA930895E2E0E7
:10220200EA93E1E0EA930895EA93E0E0EA930E9418
:10221200B20EE3E0F5E0FA93EA93EAE0F1E0FA9332
:10222200EA930895E0E0EA93E091ED06EA930E94D2
:102232000204E5E0A5CFE3E0F5E0FA93EA93EAE0F1
:10224200F1E0FA93EA93E091ED06F0E00895E0916F
:10225200ED06F0E00895E3E0EBBDE0E2EABD0895AB
:10226200E0E0E0938500E09384000895E0930105A7
:10227200E09302050895A0910105B091020514971B
:102282000895E0910105F09102050895EB51F94F8F
:10229200A0E0A083F6DF5FCFA1E0B5E0ED91FD9174
:1022A2003196FE93EE930895E0E0E8BBE5BB089516
:1022B200E3E0F5E0FA93EA930895ECE3F1E0FA93B0
:1022C200EA93E02F97CEECE3F0E0FA93EA930C94D2
:1022D200A013E093ED0616CF0E947015EA0FFB1FC4
:1022E2000895A5EDB6E0A00FB11F0C90112408953A
:1022F200A00FB11FAC91BB27F001EA1BFB0B0E94A0
:1023020080150E94121408950E94EA14A0E0B0E021
:1023120080E792E40E949C140895DE0114960E94C4
:102322007015AE0FBF1F0E94BC1508950E94DB13EB
:10233200F5CEEAE1F1E0FA93EA930895E02FF0E0B6
:102342000895EB89F0E00895E751F94FE081F0E05C
:1023520030970895E081F0E00895AE0FBF1FE2E0EC
:10236200F0E00E94A5150895AE85BF8588899989F8
:102372000E9480150E9412140895A081B0E0089571
:10238200EA1BFB0B0E9480150E9412140895EB8930
:10239200A2E1B7E0F0E008950E94BC15AE81BF81D2
:1023A200888599850895EE81FF8168857985A09158
:1023B200F606B091F7068091F8069091F9060E9410
:1023C2009C1408950E947015AE0FBF1F0895A0912E
:1023D200FA06B091FB068091FC069091FD060E94E0
:1023E2009C14AFE8B2EC85E79DE30E949C1408952B
:1023F200EB89A2E0B7E0F0E008950E94DF150E94A9
:102402004514A091FE06B091FF06809100079091BD
:1024120001070E949C14DF01CB01EFE8F2EC65E7B3
:102422007DE30E94EA1408950E944C14EA87FB8718
:102432006C877D870895AE81BF81888599850895CF
:10244200AA85BB858C859D850895E0E0F0EC6AE560
:1024520075E40895F5DFE0E0F0E068E474E40E94DA
:102462002F150895E0E0F0E068E474E40895EB8944
:10247200AEEEB6E0F0E0EE0FFF1FAE0FBF1F089505
:10248200EFEFFFEFED93FC930895EA85FB856C85F2
:102492007D8508950E94DB130E9475150895E1E081
:1024A200F0E0ED93FC930895F0DFF4CFE0E0F0E08C
:1024B200ED93FC930895E3E1E9BDE6E5E8BD0895F7
:1024C200E0910105EE0FEA93E0910105EA930C9485
:1024D20002041A93E1E0E8CDF001EB52F94F4DCF3F
:1024E200FB01EF52F94F36CF0E94E51549CFFC01AF
:1024F200EB52F94F42CFE752F94F2CCFAEEEB6E096
:10250200EE0FFF1FAE0FBF1F0895E0E0E0938700BC
:10251200E0938600E9BDE8BD0895F0E0E5CFEC81E7
:102522000E94CB15FF27662777270E9412140E946C
:102532002F150895EE81AEEEB6E0F0E0EE0FFF1F2C
:10254200AE0FBF1F0895E8EEF3E0FA93EA930C94FE
:10255200A013EBE0E0938700E8EBE0938600089598
:10256200E0E0EA93E1E0EA93E8E2EA930C94BD0743
:10257200EAE0EA930C94BD07E1E0EA93EA93089556
:10258200ECE3EA930C94BD07E1E0EA93E0E0EA931E
:10259200EFCFE8E2EA930C94BD07E3E0EA93E1E0CF
:1025A200EA93EECFE3E0EA93E0E0EA93E1CFE0E002
:1025B200EA93E1E0EA930895E12FAEEEB6E0F0E0AF
:1025C200EE0FFF1FAE0FBF1F6ACFE3E1E7BDE7E8E3
:1025D200E6BDE3E1E0938100E7E8E0938000E0E01C
:1025E20078CEE0E0E0938700E0938600A5CDE0930B
:1025F200E506E0E0E093E90657CE10E00FE02CEAB2
:102602003DE05BCDF9010E947515EBBD2ABD0C942E
:10261200C60EA02FBB27E09124077FCFE0911A07B7
:10262200F0911B0760911C0770911D0708950E948D
:102632004C14E0931A07F0931B0760931C077093E6
:102642001D070895E0910A07F0910B0760910C07AE
:1026520070910D070895E0930A07F0930B076093BA
:102662000C0770930D07A4E2B7E008950E94B20E22
:102672001FCE3296AC89BD898E899F890E948015B2
:102682000E9412140E942F150895E885F9856A8523
:102692007B8508953297AC89BD898E899F890E9476
:1026A20080150E9412140E942F150895E7BFE0E0E2
:1026B200E0937D000895AE89BF89888D998D0E942F
:1026C20080150E94121408952A93ED85FE85FA93CF
:1026D200EA93E989FA8909950895E889F98934978D
:1026E200E88BF98B0895ED85FE85FA93EA93E989E3
:1026F200FA8909950895A889B98914960E94B8158E
:10270200EE83FF83FA93EA930895A889B989149610
:102712000E94B815EA87FB870895DE011C960E9485
:102722004F150E94B81508950E94230FE0E3EA9323
:102732000C94280FEA930E94920E0C94230FE991B5
:10274200F991309639F080EA9FE00197F1F7A89568
:102752003197C9F70895552342F4503811F4E0FF38
:1027620004C03196691F791F6BF050E8572711F4A6
:102772005F93CFC05F3F31F0660F000C57956795AE
:10278200752F08955F9300200AF0CFC0C8C050E8AB
:10279200192E1522880F991F9527550F879550E8F6
:1027A200072E0522660F771F7527550F6795089527
:1027B200689401C0E8945F93F2DF703818F07F3FAD
:1027C20008F4A7C056E1571BAAF4519558300EF4ED
:1027D200593030F0EFEFFFEF6FEF7FE777F91AC074
:1027E20077275523B9F0EE0FFF1F661F771F5A9503
:1027F200D1F710C07727583028F0EF2FF62F672F28
:102802005850F9CF552331F076956795F795E795AE
:102812005A95D1F700200AF449D15F91089568943E
:1028220001C0E894309760407040B1F0002426F077
:10283200772312F400943AD1172E7EE1112032F060
:102842007A95EE0FFF1F661F111CF9CFEF2FF62F9F
:10285200612D5F938ADF5F9108954F93AF01FD0170
:10286200DA01AB01BC01CA01402D012C142E4F919B
:102872000895EA0FFB1F681F0895E095F095609593
:10288200EF5FFF4F6F4F08955F9381DF903871F1D3
:1028920050E8152604C05F937ADF903839F170381A
:1028A20021F1572F591B2BF112F4D7DFFACF5831F0
:1028B20018F0AA27BB278827583028F0AB2FB82F4B
:1028C20088275850F9CF552329F08695B795A795B3
:1028D2005A95D9F7502D512572F0CBDF38F4679510
:1028E200F795E795739513F420C0B7DF3EDF5F914C
:1028F2000895D8F7FBCFEA1BFB0B680B51F010F4DD
:102902000094BBDF662392F3EE0FFF1F661F7A95DA
:10291200CBF7EE27FF27662777275F910895EFEF22
:10292200FFEF6FE77FEF5F910895EFEFFFEF6FE744
:102932007FE75F9108955F932ADF703851F39038F3
:1029420041F301240894791F23F41CF300203AF385
:10295200ECCF0F921F932F933F934F931127222770
:102962009927689FA0018F9F302D410D591F6B9FA2
:10297200300D411D591F8E9F27D0BF9F25D06A9FC2
:1029820023D0BE9F1DD0AF9F1BD0AE9F110D291F1C
:10299200391F491F591FE32FF42F652F522F4F91D3
:1029A2003F912F911F910F9066232AF0550FEE1F32
:1029B200FF1F661F02C073954BF2CDDE5F91089533
:1029C200100D211D391F02C0200D311D491F591F35
:1029D20008955F93DCDE703821F411200AF49FCF52
:1029E200A4CF903809F495CF01240894970B1BF4D7
:1029F200D4F30020F3CF792F1F932F933F934F935C
:102A020011241127222733274427552790E2AE1796
:102A1200BF078607410730F0AE1BBF0B860B410B89
:102A2200089401C08894551F221F331F111CAA1F2E
:102A3200BB1F881F441F9A9551F7F901612D4F91D1
:102A42003F912F911F91662332F0550FEE1FFF1F0A
:102A5200661F7A9543F27FDE5F91089599239AF07B
:102A6200772342F0971748F029F4AE17BF0786077D
:102A720020F031F0989488940895989408940895D9
:102A82001894889408957723C2F7971798F3A9F7B3
:102A9200EA17FB07680788F399F3ECCF0024AF0D20
:102AA200B01D0895F195E195F0400895F095609577
:102AB2007095E195FF4F6F4F7F4F0895EE230E2ED5
:102AC200EA2F19F0EE0F0A94E9F70895EE230E2E7D
:102AD200FD0121F0EE0FFF1F0A94E1F70895EE0FBA
:102AE200FF1FEE0FFF1F0895EF2FFF27E7FDFFEFF8
:102AF2000895FE2FFF0FFF0B6F2F7F2F08956F2F6B
:102B0200660F660B762F0895FA9FF02DEB9FF00D5E
:102B1200EA9FE02DF10D08951CD0F6DF0EF4C2DF1E
:102B220008950024112490E1AA0FBB1F001C111C60
:102B32000E1A1F0A18F40E0E1F1E01C0A1609A95EC
:102B420099F7FD01D001089504D0EBDF0EF4AADF5E
:102B52000895E894F7FF02C0A5DF6894B7FF06C0A6
:102B6200A095B095119600F8039400FA0895ED919E
:102B7200FC9111970895ED91FD916D917C911397C0
:102B82000895ED93FD936D937C9308950590F491D0
:102B9200E02D0895A881B9818A819B810895E883F7
:102BA200F9836A837B830895A083B18382839383AD
:102BB20008957A936A93FA93EA930895182E862FCA
:102BC200612D192E972F712D1B2EBF2FF12D1A2E2D
:102BD200AE2FE12D08955A934A933A932A931A936A
:102BE2000A9308955D814C813B812A811981088174
:102BF2000895AC0FBD1F05900D928A95E1F70895D7
:00000001FF
