:080000000C94A2000C94000016
:100008000C9400000C9400000C9400000C94000068
:100018000C9400000C9400000C9400000C94000058
:100028000C9400000C9400000C94D5000C94000073
:100038000C94D8000C9400000C9400000C94000060
:100048000C9400000C9400000C9400000C94DF0049
:100058000C9400000C9400000C9400000C94000018
:100068000C9400000C94DD000C9400000C94DE004D
:100078000C9400000C9400000C9400000C940000F8
:100088000C9400001027E80364000A000100001027
:10009800000110000100FFFFFFFFFFFFFFFFFFFF50
:1000A80054657374696E670025640054756E6E69D3
:1000B8006E67005445535400312E50726573737542
:1000C8007265205445535400322E5072657373750F
:1000D80072652054756E6E696E6700332E466C65C6
:1000E80078205445535400342E466C657820547556
:1000F8006E6E696E6700352E50574D205445535427
:1001080000362E50554D50205445535400372E4F2D
:10011800726465722054455354002A2A425245415C
:100128004B212A2A000080C004000506A000040014
:10013800E106A4000200E5062E010000F894EE276F
:10014800ECBBF1E0F5BFE5BFE0936C00F8E1F1BD71
:10015800E1BD8DE0A2E0BB27ED938A95E9F780E049
:1001680090E1A0E0B1E0ED930197E9F7E0E3F1E079
:1001780085919591009761F0A591B591059015909D
:10018800BF01F00105900D920197E1F7FB01F0CF57
:100198008BBFEFEFEDBFE0E1EEBFC0E0D5E00C9420
:1001A800DB02EA93E1E002C0EA93E0E0E5BBE99113
:1001B8001895189518950A921A92AA93BA93EA93E1
:1001C800FA93EFB7EA93A0912B05A53058F0E09188
:1001D8002B05F0E03497A2E3B0E00E94C807E75F80
:1001E800F94F07C0E0912B05A2E3EA9FF001E35D18
:1001F800FA4FDF01E0910005F0E0AE0FBF1FE5B157
:10020800EC93A0910005A23359F4E0912B05EF5F20
:10021800E0932B05E0E0E0930005E1E0E0932C0596
:10022800E0912B05E770E0932B05E066E7B9369A75
:10023800E0910005EF5FE0930005E991EFBFF991C8
:10024800E991B991A9911990099018951A9310E01C
:10025800E0912C05E030E1F3E0E0E0930105E09364
:1002680002050E94630614974CF510E01233A0F4BF
:100278000E9468060E946D06EA0FFB1FFF93EF932A
:100288000E947206E35DFA4F0E947906AF91BF9112
:10029800ED93FC931F5FEACF0E946806E350FA4F84
:1002A800BF010E9468060E946D060E9482060E9495
:1002B8006D060E948E060E949506D3CFE0E0E0937B
:1002C8002C05FDC00E949D060A9B19C00E94A50628
:1002D8000E94AE06099B1F5F0B9B1150143008F05B
:1002E80013E00E94B4060E94C4060E94D306E3509D
:1002F800FA4FE0810E94C4060E94E406E5CFDFC001
:100308000E94EA060A9B3FC00E94A5060E94F206C8
:10031800099B1F5F0B9B1150143008F013E00E94DB
:10032800F8060F01E350FA4F0E94FB0640F40E94C2
:100338000207AF5FB94F0E94F8060E9405070E94A6
:10034800F8060F01E350FA4F0E940A0740F40E9492
:100358000207AB5FB94F0E94F8060E9405070E948A
:1003680011070E94B406F0E0EB5FF94FE0810E94AC
:10037800C4060E94D306EF5FF94FE0810E94C406CD
:100388000E942107BFCF9BC01A9310E0E0912C0573
:10039800E030E1F3E0E0E0930105E09302050E941C
:1003A800630614973CF510E0123390F40E94270777
:1003B800EA0FFB1FFF93EF930E947206E75FF94F66
:1003C8000E947906AF91BF91ED93FC931F5FECCF2C
:1003D8000E946806E752F94FBF010E9427070E9452
:1003E8008206A1EDB6E0EE0FFF1F0E948E060E9466
:1003F8009506D5CFE0E0E0932C0561C00E949D06EC
:100408000A9B19C00E942D070E94AE06099B1F5F18
:100418000B9B1150143008F013E00E94B4060E94A0
:10042800C4060E94D306E752F94FE0810E94C40631
:100438000E94E406E5CF43C00E94EA060A9B3FC03B
:100448000E942D070E94F206099B1F5F0B9B11500B
:10045800143008F013E00E94F8060F01E752F94F34
:100468000E94FB0640F40E940207A352B94F0E9463
:10047800F8060E9405070E94F8060F01E752F94F97
:100488000E940A0740F40E940207AF51B94F0E9428
:10049800F8060E9405070E9411070E94B406F0E0C2
:1004A800EF51F94FE0810E94C4060E94D306E3523F
:1004B800F94FE0810E94C4060E942107BFCF19911D
:1004C80008950E9436070A9B1BC0099902C0065F5F
:1004D8001F4F0B9902C00A501040002E012A11F438
:1004E80000E010E0E6B5F7B50E171F0710F006B5E7
:1004F80017B5E12FF070EBBD0ABD0E943B07E3CFB3
:100508001FC00E9436070A9B1BC0099902C0065FDC
:100518001F4F0B9902C00A501040002E012A11F4F7
:1005280000E010E0E6B5F7B50E171F0710F006B5A6
:1005380017B5E12FF070E9BD08BD0E943B07E3CF76
:10054800099119910895C89B06C0CA9B04C0CC9B09
:1005580002C0CE990AC0E2E3F0E0FBBDEABDE0E0EC
:10056800E0938700E6E9E0938600C99B06C0CB9B31
:1005780004C0CD9B02C0CF990AC0E6E9F0E0FBBDFC
:10058800EABDE0E0E0938700E2E3E0938600E881DB
:10059800A1E10E94C007E5BBE881EF5FE883A8817D
:1005A800A43010F0E0E0E883E8810C944C0610E0F9
:1005B80006E030E0EEEFEBBBEFEFEABBE0E0E8BBD4
:1005C800EFEFE7BBE0E0E5BBEFEFE4BBE0E0E2BB69
:1005D800EFEFE1BBE0E0E3B9EFE8E2B9E0E0E09398
:1005E8006200E0936100E0936500E0936400E2E25A
:1005F800EFBDE8E1EEBDE0E0EDBDECBDE3E1E7BD58
:10060800E7E8E6BDE0E0EBBDEABDE9BDE8BDE093A3
:100618007900E0937800E2E0E0938B00E8E1E09372
:100628008A00E0E0E0938900E0938800E09381008D
:10063800E0938000E0938700E0938600E0938500D4
:10064800E0938400E0938300E0938200E4E1E7BF55
:10065800E0937D00E1E2E7B9EFECE6B9E1E0E0BD67
:10066800E8E0EA930E9419067894099B1F5F0B9BA8
:100678001150011708F410E0103011F40B9B102FE3
:100688000E94F806309749F40E946607E0ECF0E013
:100698000E946D070A9B16DE57C0E130A0E0FA07FA
:1006A80049F40E946607E0EDF0E00E946D070A9B9E
:1006B80027DE4AC0E230A0E0FA0749F40E94660744
:1006C800E3EEF0E00E946D070A9B98DE3DC0E33040
:1006D800A0E0FA0749F40E946607EFEEF0E00E94F6
:1006E8006D070A9BA9DE30C0E430A0E0FA0749F4A0
:1006F8000E946607EEEFF0E00E946D070A9BE1DEBC
:1007080023C0E530A0E0FA0749F40E946607E9E053
:10071800F1E00E946D070A9BF4DE16C0E630A0E007
:10072800FA0761F40E946607E5E1F1E00E946D07AF
:100738000A9903C03A9307DF3E2F06C00E94660756
:10074800E2E2F1E00E946D07ECE2F1E0FA93EA934D
:100758000E94AC078ACFFFCF1A930A93AA81BB8164
:1007680012960E94E907309759F1AA81BB81149625
:100778000E94E9078F01309761F00230E0E01E0720
:10078800F0F0F80131978F01AA81BB811496ED939F
:10079800FC93AA81BB811296ED91FD913196FE934F
:1007A800EE933197AC81A083AA81BB810E94E907AF
:1007B800FF232AF0ED91FD913196FE93EE9306C04A
:1007C800AA81BB81EFEFFFEFED93FC9319810881BC
:1007D8002596089526970E94F60710E0AC85BD85FA
:1007E800E0E0F0E0ED93FC93EA89FB893196EA8B2F
:1007F800FB8B3197E4912E2FE03011F40C941B05FC
:10080800E12FE03039F4253211F411E002C00E94E2
:1008180071070CC1E130A9F4253219F40E9471075F
:1008280004C112E040E000E02D3211F401E0FEC006
:100838002B3211F44BE2FAC0203211F440E2F6C038
:1008480002C0E23039F450E013E0203311F40068BC
:10085800EDC004C0E33011F00C941A05203310F0F9
:100868002A3308F007C0AAE05A9F502DE22FE05320
:100878005E0FDCC0E22FE33649F40E947A07E8896C
:10088800F989A481AA930E948007CFC0E33741F475
:100898000E947A070E9488070E944E061E2F0AC0EF
:1008A800E03761F40E947A070E9488070E94580680
:1008B8001E2F086002600F7730E035C0E43611F073
:1008C800E93611F4046002C0E53731F4ECE8F0E0F1
:1008D800EE83FF8315E00DC0E83511F4086004C00D
:1008E800E83711F00C941905E6E9F0E0EE83FF8390
:1008F80014E002FF14C00E947A070E949207AB8599
:10090800AA233AF4EA85FB850E94BC07EA87FB879D
:100918004DE2403011F01F5F01C00B7F04C00E9400
:100928007A070E94920700FD11C0151778F407FF97
:1009380008C002FF04C00B7F242F115001C020E320
:1009480001C020E20E9471075150EFCF312F01FF03
:1009580017C03030A1F003FF06C0EE81FF8125915A
:10096800EE83FF8305C0AE81BF812D91AE83BF8327
:100978000E947107503009F051503150EACF4BC0F6
:1009880020E3EE81FF810E94ED07E887F987EE8179
:10099800FF813296EE83FF83E885F985AA85BB85BA
:1009A800AE17BF0750F02F5FA885B985EA85FB858C
:1009B800EA1BFB0BEA87FB87EFCF2A3328F003FFFC
:1009C80002C0295F01C0295D04FD1AC0213320F44B
:1009D800A885B985119709F409C0531710F000FFCD
:1009E80001C013C020E207FF0BC020E3006102FF33
:1009F80007C00B7F4A930E948007503009F051507E
:100A08000E947107503009F051503150A885B985BE
:100A1800129708F0B5CF00FF08C0503031F05150A0
:100A2800E0E2EA930E948007F8CF10E0DDCEAC85C3
:100A3800BD850E94E9070E94FD0764960895FF920C
:100A4800F82E26970E94F8070E949A07309719F403
:100A5800EFEFFFEF25C0DE0116960E94B8078D0163
:100A68000E949A07EE83FF83E0E0E887E987DE01CA
:100A78001A960E94B8070E94E907FA93EA931A9314
:100A88000A93E0EBF3E0FA93EA93FE013A96FA93BD
:100A9800EA93A0DE9F01AE81BF81E0E0EC93F9010B
:100AA8000E94FF072A96FF900895FFE0FA95F1F754
:100AB8000895A1B3AF70A1BB919A9098F6DF929A6E
:100AC800F4DFA0B39298F1DF929AEFDF9298A7FD36
:100AD800F5CF0895A07FAB2BA2BB929A0E9459052F
:100AE80092980E94590508959198A1B3A76FA1BB48
:100AF800B2B3BF70A881EEDFA881A295EBDF919A0F
:100B08000C944C06929A0E945905E0B392980E9460
:100B18005905E07F08950E945905F4DFAE2FF2DFF2
:100B28009198E295EA2B08950E945D05E881F0E02E
:100B3800EB51F94FE081A981EA0FEA930E94780509
:100B4800E981E093E906E881E093EA0622960895B0
:100B58000E945D05E2E0EA930E9478050E945D0527
:100B6800ECE0EA930E9478050E945D05E1E0EA93D3
:100B78000E947805E0E0E093EA06E093E90608952C
:100B8800EF93FF93A8816894AA3039F0E894E09134
:100B9800EB06A091E906AE1760F0E091EA06EF5F78
:100BA800E093EA06E0E0EA93E091EA06EA93BCDF24
:100BB80056F0E091E906EF5FE093E9067ADF909A54
:100BC800A881AA9391DFFF91EF910C944C061A9398
:100BD800A981BA81ED91A983BA831E2FE03019F05B
:100BE8001A93CEDFF5CF0EC01A93E981FA813196B8
:100BF800E983FA833197E4911E2FE03019F01A93B4
:100C0800BFDFF3CF188123960895AA27BB27119732
:100C1800F1F708959198A1B3A76FA1BBB2B3BF70C4
:100C2800A8810E946E05919A33C092989098E881A5
:100C3800E093EB06E058E093E706E881E054E093A0
:100C4800E8060E94A1070E94A1070E94A107DDDF14
:100C5800E0E2EA93DFDFD9DFE8E20E94A707E4E0F9
:100C68000E94A707E5E80E94A707A1B3AF70A1BB40
:100C7800919A0E948F05E53011F0E0E009C00E94CA
:100C88005D05E6E0EA930E9478050E94AC05E1E084
:100C980021960895A991B991EE27FF276D916623B2
:100CA80011F03196FBCF0895AA27BB27E991F99156
:100CB8000590002011F01196FBCFFD010895A09139
:100CC8000105B09102050895E0910105F091020532
:100CD8000895A5EFB5E0EE0FFF1F0895708181819B
:100CE800EEDFE2E30E94D0070895DF01EE27A10FAF
:100CF800BE1FEC91F0E0E70FF81F0895AE0FBF1F7D
:100D08000E94E907DF01E2E3F0E00E94D607DB0179
:100D1800EC93DACFAE0FBF1FE0E0F0E0ED93FC9369
:100D28000895A1E0B5E0ED91FD913196FE93EE9323
:100D380008951A9310E0ECE2F1E0FA93EA930C9428
:100D4800AC070E942A010E94AC05E0E0EA93EA930E
:100D58000C949805E8EAF0E0FA93EA930C94F80505
:100D6800E0E0EA93E1E0EA930E949805E3E0F5E029
:100D7800FA93EA93E0EBF0E0FA93EA93E12F08950F
:100D8800FF27662777270E94F10784E00E94230542
:100D98002896E3E0F5E0FA93EA930C94EB05E4E097
:100DA800EA93E1E0EA930E949805E3E0F5E0FA931C
:100DB800EA93E0EBF0E0FA93EA93E12FF0E008958C
:100DC800E8ECF0E0FA93EA930C94AC071A9310E07D
:100DD800E4EFF1E0FA93EA930C94AC07E3EBF0E06C
:100DE800FA93EA930C94F805E12FF0E00895A081B6
:100DF800F001EF5FF94FE081EA170895A12FB0E005
:100E08000895E350FA4FE081EC930895A081F00132
:100E1800EB5FF94FE081AE170895E0E0EA93E7E071
:100E2800EA930E949805E3E0F5E0FA93EA93E0EB91
:100E3800F0E0FA93EA93E12FA3CFE4E6F0E0FA9327
:100E4800EA930C94AC0740DFA1EDB6E0EE0FFF1F6C
:100E580008950E94C8010E94AC05E0E0EA93EA9375
:100E68000C9498051A930A930EE511E0E6CF0E94B8
:100E7800AC05E0E0EA93EA930E949805EBEBF0E01A
:100E8800FA93EA930E94F805E0E0EA93E1E0EA9336
:100E98000E949805E3E0F5E0FA93EA93E0EBF0E0CE
:100EA800FA93EA93F801662777270E94F10784E00E
:100EB8000E9423052896E3E0F5E0FA93EA930E945E
:100EC800EB05BBCF0E94AC05E0E0EA93EA930C94F3
:100ED8009805FA93EA930C94F8052A93ED85FE8514
:100EE800FA93EA93E989FA8909950895E889F989CD
:100EF8003497E88BF98B0895ED85FE85FA93EA938C
:100F0800E989FA8909950895A889B98914960E94EA
:100F1800E907EE83FF83FA93EA930895A889B989CC
:100F280014960E94E907EA87FB870895DE011C965C
:100F38000E94B8070E94E90708950E940906E0E3A5
:100F4800EA930C940E06EA930E9478050C9409061D
:100F5800E991F991309639F080EA9FE00197F1F72D
:100F6800A8953197C9F708950024AF0DB01D0895CD
:100F7800F195E195F0400895EE230E2EEA2F19F031
:100F8800EE0F0A94E9F70895FA9FF02DEB9FF00D04
:100F9800EA9FE02DF10D08956E2F6A9FF0016B9F77
:100FA800F00D08950024112490E1AA0FBB1F001C26
:100FB800111C0E1A1F0A18F40E0E1F1E01C0A16084
:100FC8009A9599F7FD01D0010895ED91FC9111973B
:100FD80008950590F491E02D08957A936A93FA9311
:100FE800EA9308955A934A933A932A931A930A9341
:100FF80008955D814C813B812A811981088108957A
:00000001FF
